{
  "_format": "hh-sol-artifact-1",
  "contractName": "OTC",
  "sourceName": "contracts/OTC.sol",
  "abi": [
    {
      "inputs": [
        {
          "internalType": "address",
          "name": "owner_",
          "type": "address"
        },
        {
          "internalType": "contract IERC20",
          "name": "token_",
          "type": "address"
        },
        {
          "internalType": "contract IERC20",
          "name": "usdc_",
          "type": "address"
        },
        {
          "internalType": "contract AggregatorV3Interface",
          "name": "tokenUsdFeed_",
          "type": "address"
        },
        {
          "internalType": "contract AggregatorV3Interface",
          "name": "ethUsdFeed_",
          "type": "address"
        },
        {
          "internalType": "address",
          "name": "agent_",
          "type": "address"
        }
      ],
      "stateMutability": "nonpayable",
      "type": "constructor"
    },
    {
      "inputs": [],
      "name": "EnforcedPause",
      "type": "error"
    },
    {
      "inputs": [],
      "name": "ExpectedPause",
      "type": "error"
    },
    {
      "inputs": [
        {
          "internalType": "address",
          "name": "owner",
          "type": "address"
        }
      ],
      "name": "OwnableInvalidOwner",
      "type": "error"
    },
    {
      "inputs": [
        {
          "internalType": "address",
          "name": "account",
          "type": "address"
        }
      ],
      "name": "OwnableUnauthorizedAccount",
      "type": "error"
    },
    {
      "inputs": [],
      "name": "ReentrancyGuardReentrantCall",
      "type": "error"
    },
    {
      "anonymous": false,
      "inputs": [
        {
          "indexed": true,
          "internalType": "address",
          "name": "previous",
          "type": "address"
        },
        {
          "indexed": true,
          "internalType": "address",
          "name": "newAgent",
          "type": "address"
        }
      ],
      "name": "AgentUpdated",
      "type": "event"
    },
    {
      "anonymous": false,
      "inputs": [
        {
          "indexed": true,
          "internalType": "address",
          "name": "approver",
          "type": "address"
        },
        {
          "indexed": false,
          "internalType": "bool",
          "name": "allowed",
          "type": "bool"
        }
      ],
      "name": "ApproverUpdated",
      "type": "event"
    },
    {
      "anonymous": false,
      "inputs": [
        {
          "indexed": true,
          "internalType": "uint256",
          "name": "id",
          "type": "uint256"
        },
        {
          "indexed": true,
          "internalType": "address",
          "name": "by",
          "type": "address"
        }
      ],
      "name": "OfferApproved",
      "type": "event"
    },
    {
      "anonymous": false,
      "inputs": [
        {
          "indexed": true,
          "internalType": "uint256",
          "name": "id",
          "type": "uint256"
        },
        {
          "indexed": true,
          "internalType": "address",
          "name": "by",
          "type": "address"
        }
      ],
      "name": "OfferCancelled",
      "type": "event"
    },
    {
      "anonymous": false,
      "inputs": [
        {
          "indexed": true,
          "internalType": "uint256",
          "name": "id",
          "type": "uint256"
        },
        {
          "indexed": true,
          "internalType": "address",
          "name": "beneficiary",
          "type": "address"
        },
        {
          "indexed": false,
          "internalType": "uint256",
          "name": "tokenAmount",
          "type": "uint256"
        },
        {
          "indexed": false,
          "internalType": "uint256",
          "name": "discountBps",
          "type": "uint256"
        },
        {
          "indexed": false,
          "internalType": "enum OTC.PaymentCurrency",
          "name": "currency",
          "type": "uint8"
        }
      ],
      "name": "OfferCreated",
      "type": "event"
    },
    {
      "anonymous": false,
      "inputs": [
        {
          "indexed": true,
          "internalType": "uint256",
          "name": "id",
          "type": "uint256"
        },
        {
          "indexed": true,
          "internalType": "address",
          "name": "payer",
          "type": "address"
        },
        {
          "indexed": false,
          "internalType": "uint256",
          "name": "amountPaid",
          "type": "uint256"
        }
      ],
      "name": "OfferPaid",
      "type": "event"
    },
    {
      "anonymous": false,
      "inputs": [
        {
          "indexed": true,
          "internalType": "address",
          "name": "previousOwner",
          "type": "address"
        },
        {
          "indexed": true,
          "internalType": "address",
          "name": "newOwner",
          "type": "address"
        }
      ],
      "name": "OwnershipTransferred",
      "type": "event"
    },
    {
      "anonymous": false,
      "inputs": [
        {
          "indexed": false,
          "internalType": "address",
          "name": "account",
          "type": "address"
        }
      ],
      "name": "Paused",
      "type": "event"
    },
    {
      "anonymous": false,
      "inputs": [
        {
          "indexed": true,
          "internalType": "address",
          "name": "to",
          "type": "address"
        },
        {
          "indexed": false,
          "internalType": "uint256",
          "name": "usdcAmount",
          "type": "uint256"
        },
        {
          "indexed": false,
          "internalType": "uint256",
          "name": "ethAmount",
          "type": "uint256"
        }
      ],
      "name": "StableWithdrawn",
      "type": "event"
    },
    {
      "anonymous": false,
      "inputs": [
        {
          "indexed": false,
          "internalType": "uint256",
          "name": "amount",
          "type": "uint256"
        }
      ],
      "name": "TokenDeposited",
      "type": "event"
    },
    {
      "anonymous": false,
      "inputs": [
        {
          "indexed": false,
          "internalType": "uint256",
          "name": "amount",
          "type": "uint256"
        }
      ],
      "name": "TokenWithdrawn",
      "type": "event"
    },
    {
      "anonymous": false,
      "inputs": [
        {
          "indexed": true,
          "internalType": "uint256",
          "name": "id",
          "type": "uint256"
        },
        {
          "indexed": true,
          "internalType": "address",
          "name": "beneficiary",
          "type": "address"
        },
        {
          "indexed": false,
          "internalType": "uint256",
          "name": "amount",
          "type": "uint256"
        }
      ],
      "name": "TokensClaimed",
      "type": "event"
    },
    {
      "anonymous": false,
      "inputs": [
        {
          "indexed": false,
          "internalType": "address",
          "name": "account",
          "type": "address"
        }
      ],
      "name": "Unpaused",
      "type": "event"
    },
    {
      "inputs": [],
      "name": "agent",
      "outputs": [
        {
          "internalType": "address",
          "name": "",
          "type": "address"
        }
      ],
      "stateMutability": "view",
      "type": "function"
    },
    {
      "inputs": [
        {
          "internalType": "uint256",
          "name": "offerId",
          "type": "uint256"
        }
      ],
      "name": "approveOffer",
      "outputs": [],
      "stateMutability": "nonpayable",
      "type": "function"
    },
    {
      "inputs": [
        {
          "internalType": "uint256[]",
          "name": "offerIds",
          "type": "uint256[]"
        }
      ],
      "name": "autoClaim",
      "outputs": [],
      "stateMutability": "nonpayable",
      "type": "function"
    },
    {
      "inputs": [],
      "name": "availableTokenInventory",
      "outputs": [
        {
          "internalType": "uint256",
          "name": "",
          "type": "uint256"
        }
      ],
      "stateMutability": "view",
      "type": "function"
    },
    {
      "inputs": [
        {
          "internalType": "uint256",
          "name": "offerId",
          "type": "uint256"
        }
      ],
      "name": "cancelOffer",
      "outputs": [],
      "stateMutability": "nonpayable",
      "type": "function"
    },
    {
      "inputs": [
        {
          "internalType": "uint256",
          "name": "offerId",
          "type": "uint256"
        }
      ],
      "name": "claim",
      "outputs": [],
      "stateMutability": "nonpayable",
      "type": "function"
    },
    {
      "inputs": [
        {
          "internalType": "uint256",
          "name": "tokenAmount",
          "type": "uint256"
        },
        {
          "internalType": "uint256",
          "name": "discountBps",
          "type": "uint256"
        },
        {
          "internalType": "enum OTC.PaymentCurrency",
          "name": "currency",
          "type": "uint8"
        },
        {
          "internalType": "uint256",
          "name": "lockupSeconds",
          "type": "uint256"
        }
      ],
      "name": "createOffer",
      "outputs": [
        {
          "internalType": "uint256",
          "name": "offerId",
          "type": "uint256"
        }
      ],
      "stateMutability": "nonpayable",
      "type": "function"
    },
    {
      "inputs": [],
      "name": "defaultUnlockDelaySeconds",
      "outputs": [
        {
          "internalType": "uint256",
          "name": "",
          "type": "uint256"
        }
      ],
      "stateMutability": "view",
      "type": "function"
    },
    {
      "inputs": [
        {
          "internalType": "uint256",
          "name": "amount",
          "type": "uint256"
        }
      ],
      "name": "depositTokens",
      "outputs": [],
      "stateMutability": "nonpayable",
      "type": "function"
    },
    {
      "inputs": [],
      "name": "ethUsdFeed",
      "outputs": [
        {
          "internalType": "contract AggregatorV3Interface",
          "name": "",
          "type": "address"
        }
      ],
      "stateMutability": "view",
      "type": "function"
    },
    {
      "inputs": [
        {
          "internalType": "uint256",
          "name": "offerId",
          "type": "uint256"
        }
      ],
      "name": "fulfillOffer",
      "outputs": [],
      "stateMutability": "payable",
      "type": "function"
    },
    {
      "inputs": [
        {
          "internalType": "address",
          "name": "who",
          "type": "address"
        }
      ],
      "name": "getOffersForBeneficiary",
      "outputs": [
        {
          "internalType": "uint256[]",
          "name": "",
          "type": "uint256[]"
        }
      ],
      "stateMutability": "view",
      "type": "function"
    },
    {
      "inputs": [],
      "name": "getOpenOfferIds",
      "outputs": [
        {
          "internalType": "uint256[]",
          "name": "",
          "type": "uint256[]"
        }
      ],
      "stateMutability": "view",
      "type": "function"
    },
    {
      "inputs": [
        {
          "internalType": "address",
          "name": "",
          "type": "address"
        }
      ],
      "name": "isApprover",
      "outputs": [
        {
          "internalType": "bool",
          "name": "",
          "type": "bool"
        }
      ],
      "stateMutability": "view",
      "type": "function"
    },
    {
      "inputs": [],
      "name": "maxTokenPerOrder",
      "outputs": [
        {
          "internalType": "uint256",
          "name": "",
          "type": "uint256"
        }
      ],
      "stateMutability": "view",
      "type": "function"
    },
    {
      "inputs": [],
      "name": "minUsdAmount",
      "outputs": [
        {
          "internalType": "uint256",
          "name": "",
          "type": "uint256"
        }
      ],
      "stateMutability": "view",
      "type": "function"
    },
    {
      "inputs": [],
      "name": "nextOfferId",
      "outputs": [
        {
          "internalType": "uint256",
          "name": "",
          "type": "uint256"
        }
      ],
      "stateMutability": "view",
      "type": "function"
    },
    {
      "inputs": [
        {
          "internalType": "uint256",
          "name": "",
          "type": "uint256"
        }
      ],
      "name": "offers",
      "outputs": [
        {
          "internalType": "address",
          "name": "beneficiary",
          "type": "address"
        },
        {
          "internalType": "uint256",
          "name": "tokenAmount",
          "type": "uint256"
        },
        {
          "internalType": "uint256",
          "name": "discountBps",
          "type": "uint256"
        },
        {
          "internalType": "uint256",
          "name": "createdAt",
          "type": "uint256"
        },
        {
          "internalType": "uint256",
          "name": "unlockTime",
          "type": "uint256"
        },
        {
          "internalType": "uint256",
          "name": "priceUsdPerToken",
          "type": "uint256"
        },
        {
          "internalType": "uint256",
          "name": "ethUsdPrice",
          "type": "uint256"
        },
        {
          "internalType": "enum OTC.PaymentCurrency",
          "name": "currency",
          "type": "uint8"
        },
        {
          "internalType": "bool",
          "name": "approved",
          "type": "bool"
        },
        {
          "internalType": "bool",
          "name": "paid",
          "type": "bool"
        },
        {
          "internalType": "bool",
          "name": "fulfilled",
          "type": "bool"
        },
        {
          "internalType": "bool",
          "name": "cancelled",
          "type": "bool"
        },
        {
          "internalType": "address",
          "name": "payer",
          "type": "address"
        },
        {
          "internalType": "uint256",
          "name": "amountPaid",
          "type": "uint256"
        }
      ],
      "stateMutability": "view",
      "type": "function"
    },
    {
      "inputs": [
        {
          "internalType": "uint256",
          "name": "",
          "type": "uint256"
        }
      ],
      "name": "openOfferIds",
      "outputs": [
        {
          "internalType": "uint256",
          "name": "",
          "type": "uint256"
        }
      ],
      "stateMutability": "view",
      "type": "function"
    },
    {
      "inputs": [],
      "name": "owner",
      "outputs": [
        {
          "internalType": "address",
          "name": "",
          "type": "address"
        }
      ],
      "stateMutability": "view",
      "type": "function"
    },
    {
      "inputs": [],
      "name": "pause",
      "outputs": [],
      "stateMutability": "nonpayable",
      "type": "function"
    },
    {
      "inputs": [],
      "name": "paused",
      "outputs": [
        {
          "internalType": "bool",
          "name": "",
          "type": "bool"
        }
      ],
      "stateMutability": "view",
      "type": "function"
    },
    {
      "inputs": [],
      "name": "quoteExpirySeconds",
      "outputs": [
        {
          "internalType": "uint256",
          "name": "",
          "type": "uint256"
        }
      ],
      "stateMutability": "view",
      "type": "function"
    },
    {
      "inputs": [],
      "name": "renounceOwnership",
      "outputs": [],
      "stateMutability": "nonpayable",
      "type": "function"
    },
    {
      "inputs": [
        {
          "internalType": "address",
          "name": "newAgent",
          "type": "address"
        }
      ],
      "name": "setAgent",
      "outputs": [],
      "stateMutability": "nonpayable",
      "type": "function"
    },
    {
      "inputs": [
        {
          "internalType": "address",
          "name": "a",
          "type": "address"
        },
        {
          "internalType": "bool",
          "name": "allowed",
          "type": "bool"
        }
      ],
      "name": "setApprover",
      "outputs": [],
      "stateMutability": "nonpayable",
      "type": "function"
    },
    {
      "inputs": [
        {
          "internalType": "contract AggregatorV3Interface",
          "name": "tokenUsd",
          "type": "address"
        },
        {
          "internalType": "contract AggregatorV3Interface",
          "name": "ethUsd",
          "type": "address"
        }
      ],
      "name": "setFeeds",
      "outputs": [],
      "stateMutability": "nonpayable",
      "type": "function"
    },
    {
      "inputs": [
        {
          "internalType": "uint256",
          "name": "minUsd",
          "type": "uint256"
        },
        {
          "internalType": "uint256",
          "name": "maxToken",
          "type": "uint256"
        },
        {
          "internalType": "uint256",
          "name": "expirySecs",
          "type": "uint256"
        },
        {
          "internalType": "uint256",
          "name": "unlockDelaySecs",
          "type": "uint256"
        }
      ],
      "name": "setLimits",
      "outputs": [],
      "stateMutability": "nonpayable",
      "type": "function"
    },
    {
      "inputs": [],
      "name": "token",
      "outputs": [
        {
          "internalType": "contract IERC20",
          "name": "",
          "type": "address"
        }
      ],
      "stateMutability": "view",
      "type": "function"
    },
    {
      "inputs": [],
      "name": "tokenDeposited",
      "outputs": [
        {
          "internalType": "uint256",
          "name": "",
          "type": "uint256"
        }
      ],
      "stateMutability": "view",
      "type": "function"
    },
    {
      "inputs": [],
      "name": "tokenReserved",
      "outputs": [
        {
          "internalType": "uint256",
          "name": "",
          "type": "uint256"
        }
      ],
      "stateMutability": "view",
      "type": "function"
    },
    {
      "inputs": [],
      "name": "tokenUsdFeed",
      "outputs": [
        {
          "internalType": "contract AggregatorV3Interface",
          "name": "",
          "type": "address"
        }
      ],
      "stateMutability": "view",
      "type": "function"
    },
    {
      "inputs": [
        {
          "internalType": "uint256",
          "name": "offerId",
          "type": "uint256"
        }
      ],
      "name": "totalUsdForOffer",
      "outputs": [
        {
          "internalType": "uint256",
          "name": "",
          "type": "uint256"
        }
      ],
      "stateMutability": "view",
      "type": "function"
    },
    {
      "inputs": [
        {
          "internalType": "address",
          "name": "newOwner",
          "type": "address"
        }
      ],
      "name": "transferOwnership",
      "outputs": [],
      "stateMutability": "nonpayable",
      "type": "function"
    },
    {
      "inputs": [],
      "name": "unpause",
      "outputs": [],
      "stateMutability": "nonpayable",
      "type": "function"
    },
    {
      "inputs": [],
      "name": "usdc",
      "outputs": [
        {
          "internalType": "contract IERC20",
          "name": "",
          "type": "address"
        }
      ],
      "stateMutability": "view",
      "type": "function"
    },
    {
      "inputs": [
        {
          "internalType": "address",
          "name": "to",
          "type": "address"
        },
        {
          "internalType": "uint256",
          "name": "usdcAmount",
          "type": "uint256"
        },
        {
          "internalType": "uint256",
          "name": "ethAmount",
          "type": "uint256"
        }
      ],
      "name": "withdrawStable",
      "outputs": [],
      "stateMutability": "nonpayable",
      "type": "function"
    },
    {
      "inputs": [
        {
          "internalType": "uint256",
          "name": "amount",
          "type": "uint256"
        }
      ],
      "name": "withdrawTokens",
      "outputs": [],
      "stateMutability": "nonpayable",
      "type": "function"
    },
    {
      "stateMutability": "payable",
      "type": "receive"
    }
  ],
  "bytecode": "0x60c03461020b57601f61232838819003918201601f19168301916001600160401b038311848410176102105780849260c09460405283398101031261020b5761004781610226565b9061005460208201610226565b61006060408301610226565b61006c60608401610226565b9161008560a061007e60808701610226565b9501610226565b946001600160a01b031680156101f557600080546001600160a01b031981168317825560405192916001600160a01b03909116907f8be0079c531659141344cd1fd0a4f28419497f9722a3daafe3b4186f6b6457e09080a36001808055631dcd650060045569021e19e0c9bab22222006005556107086006556000600755600c556001600160a01b0382161515806101e3575b156101b4575060805260a052600280546001600160a01b03199081166001600160a01b039384161790915560038054821693831693909317909255600a805490921692169190911790556040516120ed908161023b82396080518181816101d80152818161070201528181610ef4015281816117a3015281816118ed0152611e52015260a05181818161041601528181610a6b015261169d0152f35b62461bcd60e51b815260206004820152600a60248201526962616420746f6b656e7360b01b6044820152606490fd5b506001600160a01b0383161515610118565b631e4fbdf760e01b600052600060045260246000fd5b600080fd5b634e487b7160e01b600052604160045260246000fd5b51906001600160a01b038216820361020b5756fe6080604052600436101561001b575b361561001957600080fd5b005b60003560e01c8063062075cc14611bdb57806311d69ceb14611b5857806326532163146119a9578063315a095d1461188d578063379607f5146116cc5780633e413bee146116875780633f4ba83a14611616578063433fe997146115f857806348186b0b146115da57806348d40bfb146115b757806356b33537146115435780635c975abb1461151d5780635ef5f029146114ff5780635f5d0655146114e157806360877989146111db5780636d218e481461119c578063715018a6146111435780638009b7bd1461111a5780638456cb59146110b857806388b3729e14610e6e5780638a72ea6a14610d895780638da5cb5b14610d60578063923ea74714610d37578063a075b7c714610d04578063a5d7c10a14610c31578063bcf685ed14610bc8578063c78545d914610836578063ce8e483014610818578063d76fd2e714610799578063dd49756e146106b4578063e195d09614610696578063e33ac16014610678578063ef706adf146104c0578063f0ee4a48146102dc578063f2fde38b14610253578063f52a70f214610235578063f5ff5c761461020c5763fc0c546a0361000e5734610207576000366003190112610207576040517f00000000000000000000000000000000000000000000000000000000000000006001600160a01b03168152602090f35b600080fd5b3461020757600036600319011261020757600a546040516001600160a01b039091168152602090f35b34610207576000366003190112610207576020600754604051908152f35b346102075760203660031901126102075761026c611c46565b610274611f65565b6001600160a01b031680156102c657600080546001600160a01b03198116831782556001600160a01b0316907f8be0079c531659141344cd1fd0a4f28419497f9722a3daafe3b4186f6b6457e09080a3005b631e4fbdf760e01b600052600060045260246000fd5b34610207576060366003190112610207576102f5611c46565b60243590604435610304611f65565b826103e5575b8061034b575b7facfca0845eda0bcbd22737cb8526cda0fb6e3deeac93ede1ecb1fabec14843fc916040918251948552602085015260018060a01b031692a2005b6000808080846001600160a01b0387165af13d156103e0573d67ffffffffffffffff81116103ca576040519061038b601f8201601f191660200183611ca3565b8152600060203d92013e5b6103105760405162461bcd60e51b815260206004820152600860248201526732ba34103c3332b960c11b6044820152606490fd5b634e487b7160e01b600052604160045260246000fd5b610396565b60405163a9059cbb60e01b81526001600160a01b0383166004820152602481018490526020818060448101038160007f00000000000000000000000000000000000000000000000000000000000000006001600160a01b03165af19081156104b457600091610485575b5061030a5760405162461bcd60e51b81526020600482015260096024820152683ab9b231903c3332b960b91b6044820152606490fd5b6104a7915060203d6020116104ad575b61049f8183611ca3565b810190611cf9565b8461044f565b503d610495565b6040513d6000823e3d90fd5b34610207576020366003190112610207576004356104dc611fb0565b6000818152600d6020526040902080546001600160a01b0316610500811515611d43565b600782019182549160ff8360101c16158061066a575b15610636573314808015610622575b801561060e575b80156105f6575b156105c757610578575b5064ff00000000191664010000000017905533907f1f51377b3e685a0e2419f9bb4ba7c07ec54936353ba3d0fb3c6538dab6766222600080a3005b6003015460065461058891611cc5565b4210610594578361053d565b60405162461bcd60e51b815260206004820152600b60248201526a1b9bdd08195e1c1a5c995960aa1b6044820152606490fd5b60405162461bcd60e51b81526020600482015260076024820152660dcde40c2eae8d60cb1b6044820152606490fd5b5033600052600b60205260ff60406000205416610533565b50600a546001600160a01b0316331461052c565b506000546001600160a01b03163314610525565b60405162461bcd60e51b815260206004820152600c60248201526b185b1c9958591e481c185a5960a21b6044820152606490fd5b5060ff8360181c1615610516565b34610207576000366003190112610207576020600854604051908152f35b34610207576000366003190112610207576020600954604051908152f35b34610207576020366003190112610207576004356106d0611f65565b6040516323b872dd60e01b81523360048201523060248201526044810182905260208160648160006001600160a01b037f0000000000000000000000000000000000000000000000000000000000000000165af19081156104b45760009161077a575b501561074a5761074590600854611cc5565b600855005b60405162461bcd60e51b81526020600482015260086024820152677866657246726f6d60c01b6044820152606490fd5b610793915060203d6020116104ad5761049f8183611ca3565b82610733565b34610207576040366003190112610207576107b2611c46565b602435908115158092036102075760207fc8821a874072ba4bd135632bdcea405b70de8b2a0693a9bf625bd1643c36d305916107ec611f65565b60018060a01b03169283600052600b8252604060002060ff1981541660ff8316179055604051908152a2005b34610207576000366003190112610207576020600454604051908152f35b60203660031901126102075760043561084d611f8e565b610855611fb0565b6000818152600d602052604090208054610879906001600160a01b03161515611d43565b6007810190815460ff8160081c1615610b985760ff8160201c161580610b8a575b80610b7b575b6108a990611d7a565b6108ba600383015460065490611cc5565b4211610b4c576108c8611e37565b906108da600184019283541115611edb565b60ff6108e586611dd2565b91166002811015610b3657610a185760068301548015610a0957905b670de0b6b3a7622220810290808204670de0b6b3a762222014901517156109f35781156109dd5704908134036109ae5760088381019290925583546201000064ffff010000600160c81b031990911665010000000000600160c81b033360281b16171790935591610976905b54600954611cc5565b6009550154906040519182527f7fb472248c81d2d2657ad1d37a15db0919a52022b105945bcded16294836943b60203393a360018055005b60405162461bcd60e51b81526020600482015260076024820152660c4c2c840cae8d60cb1b6044820152606490fd5b634e487b7160e01b600052601260045260246000fd5b634e487b7160e01b600052601160045260246000fd5b50610a12612051565b90610901565b620f4240810290808204620f424014901517156109f3576040516323b872dd60e01b81523360048201523060248201526305f5e10090910460448201819052919060208160648160006001600160a01b037f0000000000000000000000000000000000000000000000000000000000000000165af19081156104b457600091610b17575b5015610ae25760088381019290925583546201000064ffff010000600160c81b031990911665010000000000600160c81b033360281b161717909355916109769061096d565b60405162461bcd60e51b815260206004820152600d60248201526c75736463207866657246726f6d60981b6044820152606490fd5b610b30915060203d6020116104ad5761049f8183611ca3565b86610a9c565b634e487b7160e01b600052602160045260246000fd5b60405162461bcd60e51b8152602060048201526007602482015266195e1c1a5c995960ca1b6044820152606490fd5b50601881901c60ff16156108a0565b5060ff8160101c161561089a565b60405162461bcd60e51b81526020600482015260086024820152673737ba1030b8383960c11b6044820152606490fd5b3461020757602036600319011261020757610be1611c46565b610be9611f65565b600a546001600160a01b0391821691829082167fee7760cb405d3beb1072ae2e716857daa45a5dd52bc1383a21173199d32c7dee600080a36001600160a01b03191617600a55005b346102075760203660031901126102075760043560018060a01b03600a541633148015610ceb575b610c6290611f1a565b610c6a611fb0565b80600052600d60205260076040600020610c8e60018060a01b038254161515611d43565b01610100815460ff8160201c161580610cdc575b610cab90611d7a565b61ff00191617905533907f4a2698bb88989004e5a2f73686d0fe7c6c15b59414ffe31b59e2e3e7c15712ee600080a3005b50601081901c60ff1615610ca2565b50336000908152600b602052604090205460ff16610c59565b3461020757608036600319011261020757610d1d611f65565b600480359055602435600555604435600655606435600755005b34610207576000366003190112610207576002546040516001600160a01b039091168152602090f35b34610207576000366003190112610207576000546040516001600160a01b039091168152602090f35b3461020757602036600319011261020757600435600052600d6020526101c0604060002060018060a01b03815416906001810154906002810154600382015460048301546005840154916006850154936008600787015496015496604051988952602089015260408801526060870152608086015260a085015260c0840152610e1860e0840160ff8316611c96565b60ff8160081c16151561010084015260ff8160101c16151561012084015260ff8160181c16151561014084015260ff8160201c16151561016084015260018060a01b039060281c166101808301526101a0820152f35b346102075760203660031901126102075760043567ffffffffffffffff8111610207573660238201121561020757806004013567ffffffffffffffff8111610207576024820191602436918360051b01011161020757600a546001600160a01b03163314801561109f575b610ee290611f1a565b610eea611f8e565b610ef2611fb0565b7f00000000000000000000000000000000000000000000000000000000000000006001600160a01b031660005b828110610f2c5760018055005b610f37818486611f55565b35600052600d60205260406000209060018060a01b0382541615801561108d575b801561107c575b801561106b575b611062576004820154421061106257816007610fd89301630100000063ff000000198254161790556001810190610fa08254600954611db2565b6009558054825460405163a9059cbb60e01b81526001600160a01b039092166004830152602482015293602090859081906044820190565b03816000895af19384156104b457600194610ffb91600091611044575b50611d11565b7f880f2ef2613b092f1a0a819f294155c98667eb294b7e6bf7a3810278142c1a1c602061102985898b611f55565b3592868060a01b039054169354604051908152a35b01610f1f565b61105c915060203d81116104ad5761049f8183611ca3565b89610ff5565b6001915061103e565b5060ff600783015460181c16610f66565b5060ff600783015460201c16610f5f565b5060ff600783015460101c1615610f58565b50336000908152600b602052604090205460ff16610ed9565b34610207576000366003190112610207576110d1611f65565b6110d9611fb0565b6000805460ff60a01b1916600160a01b1790556040513381527f62e78cea01bee320cd4e420270b5ea72222d11b0c9f74754ebdbfc544b05a25890602090a1005b34610207576000366003190112610207576003546040516001600160a01b039091168152602090f35b346102075760003660031901126102075761115c611f65565b600080546001600160a01b0319811682556001600160a01b03167f8be0079c531659141344cd1fd0a4f28419497f9722a3daafe3b4186f6b6457e08280a3005b34610207576020366003190112610207576001600160a01b036111bd611c46565b16600052600b602052602060ff604060002054166040519015158152f35b3461020757608036600319011261020757600435604435602435600282101561020757606435611209611fb0565b831515806114d5575b156114a1576109c4821161147657600254604051633fabe5a360e21b8152939060a090859060049082906001600160a01b03165afa9384156104b457600094611440575b5061126360008513612019565b670de0b6b3a76222206112768587611dbf565b0483612710039061271082116109f3576127109161129391611dbf565b0460045411611412576112af856112a8611e37565b1015611edb565b600c54936112bc85611cd2565b600c556000858152600d6020526040902080546001600160a01b03191633178155600181018790556002810185905542600382015592801561140657611303905b42611cc5565b600484015560058301556007820160ff1981541660ff831617905580156113f4575b33600052600f60205260406000208054600160401b8110156103ca5761135091600182018155611c2e565b81549060031b9086821b91600019901b1916179055600e5491600160401b8310156103ca576020956113eb7f2985a0f55b778a906ac6ba5d8cd38741b9763eb5a63e13a91f87ee5552217356936060936113b38760018b9901600e55600e611c2e565b815460001960039290921b91821b19169089901b17905554604080519485528a8501989098526001600160a01b031696830190611c96565ba3604051908152f35b6113fc612051565b6006830155611325565b506113036007546112fd565b60405162461bcd60e51b81526020600482015260066024820152656d696e20243560d01b6044820152606490fd5b61146391945060a03d60a01161146f575b61145b8183611ca3565b810190611fe7565b50505090509285611256565b503d611451565b606460405162461bcd60e51b81526020600482015260046024820152636469736360e01b6044820152fd5b60405162461bcd60e51b815260206004820152600c60248201526b616d6f756e742072616e676560a01b6044820152606490fd5b50600554841115611212565b34610207576000366003190112610207576020600c54604051908152f35b34610207576000366003190112610207576020600554604051908152f35b3461020757600036600319011261020757602060ff60005460a01c166040519015158152f35b346102075760403660031901126102075761155c611c46565b6024356001600160a01b03811691908290036102075761157a611f65565b60018060a01b03166bffffffffffffffffffffffff60a01b60025416176002556bffffffffffffffffffffffff60a01b6003541617600355600080f35b346102075760003660031901126102075760206115d2611e37565b604051908152f35b34610207576000366003190112610207576020600654604051908152f35b346102075760203660031901126102075760206115d2600435611dd2565b346102075760003660031901126102075761162f611f65565b60005460ff8160a01c16156116765760ff60a01b19166000556040513381527f5db9ee0a495bf2e6ff9c91a7834c1ba4fdd244a5e8aa4e537bd38aeae4b073aa90602090a1005b638dfc202b60e01b60005260046000fd5b34610207576000366003190112610207576040517f00000000000000000000000000000000000000000000000000000000000000006001600160a01b03168152602090f35b34610207576020366003190112610207576004356116e8611f8e565b6116f0611fb0565b80600052600d60205260406000209061171360018060a01b038354161515611d43565b60078201805460ff8160101c168061187f575b80611870575b61173590611d7a565b600484015442106118425763010000009063ff000000191617905561179d60018301926117658454600954611db2565b6009558054845460405163a9059cbb60e01b81526001600160a01b039092166004830152602482015291602090839081906044820190565b038160007f00000000000000000000000000000000000000000000000000000000000000006001600160a01b03165af19081156104b4576118096020927f880f2ef2613b092f1a0a819f294155c98667eb294b7e6bf7a3810278142c1a1c946000916118255750611d11565b5493546040519081526001600160a01b0390941693a360018055005b61183c9150843d86116104ad5761049f8183611ca3565b87610ff5565b60405162461bcd60e51b81526020600482015260066024820152651b1bd8dad95960d21b6044820152606490fd5b50601881901c60ff161561172c565b5060ff8160201c1615611726565b34610207576020366003190112610207576004356118a9611f65565b806118b2611e37565b106119795760005460405163a9059cbb60e01b81526001600160a01b03909116600482015260248101829052906020828060448101038160007f00000000000000000000000000000000000000000000000000000000000000006001600160a01b03165af19081156104b4576119536020927fc172f6497c150fc242267f743e8e4034b31b16ee123408d6d5f75a81128de1149460009161195c5750611d11565b604051908152a1005b6119739150843d86116104ad5761049f8183611ca3565b85610ff5565b60405162461bcd60e51b81526020600482015260086024820152671c995cd95c9d995960c21b6044820152606490fd5b3461020757600036600319011261020757600e54600090815b818110611ad357506119d382611ce1565b916119e16040519384611ca3565b8083526119f0601f1991611ce1565b013660208401376000805b828110611a145760405180611a108682611c5c565b0390f35b611a1d81611c13565b90549060031b1c600052600d602052604060002060078101549060ff8260201c16159182611ac4575b5081611aa9575b50611a5b575b6001016119fb565b90611a6582611c13565b90549060031b1c91611a7682611cd2565b928551831015611a9357602060019360051b870101529050611a53565b634e487b7160e01b600052603260045260246000fd5b611abb91506003015460065490611cc5565b42111585611a4d565b60101c60ff1615915086611a46565b611adc81611c13565b90549060031b1c600052600d602052604060002060078101549060ff8260201c16159182611b49575b5081611b2e575b50611b1a575b6001016119c2565b91611b26600191611cd2565b929050611b12565b611b4091506003015460065490611cc5565b42111584611b0c565b60101c60ff1615915085611b05565b34610207576020366003190112610207576001600160a01b03611b79611c46565b16600052600f602052604060002060405190816020825491828152019160005260206000209060005b818110611bc557611a1085611bb981870382611ca3565b60405191829182611c5c565b8254845260209093019260019283019201611ba2565b3461020757602036600319011261020757600435600e5481101561020757611c04602091611c13565b90549060031b1c604051908152f35b600e54811015611a9357600e60005260206000200190600090565b8054821015611a935760005260206000200190600090565b600435906001600160a01b038216820361020757565b602060408183019282815284518094520192019060005b818110611c805750505090565b8251845260209384019390920191600101611c73565b906002821015610b365752565b90601f8019910116810190811067ffffffffffffffff8211176103ca57604052565b919082018092116109f357565b60001981146109f35760010190565b67ffffffffffffffff81116103ca5760051b60200190565b90816020910312610207575180151581036102075790565b15611d1857565b606460405162461bcd60e51b81526020600482015260046024820152633c3332b960e11b6044820152fd5b15611d4a57565b60405162461bcd60e51b815260206004820152600860248201526737379037b33332b960c11b6044820152606490fd5b15611d8157565b60405162461bcd60e51b815260206004820152600960248201526862616420737461746560b81b6044820152606490fd5b919082039182116109f357565b818102929181159184041417156109f357565b6000908152600d602052604090208054611df6906001600160a01b03161515611d43565b6002670de0b6b3a7622220611e146001840154600585015490611dbf565b04910154612710039061271082116109f35761271091611e3391611dbf565b0490565b6040516370a0823160e01b81523060048201526020816024817f00000000000000000000000000000000000000000000000000000000000000006001600160a01b03165afa9081156104b457600091611ea9575b50600954808210611ea257611e9f91611db2565b90565b5050600090565b90506020813d602011611ed3575b81611ec460209383611ca3565b81010312610207575138611e8b565b3d9150611eb7565b15611ee257565b60405162461bcd60e51b815260206004820152601060248201526f34b739bab333103a37b5b2b71034b73b60811b6044820152606490fd5b15611f2157565b60405162461bcd60e51b815260206004820152600c60248201526b2737ba1030b8383937bb32b960a11b6044820152606490fd5b9190811015611a935760051b0190565b6000546001600160a01b03163303611f7957565b63118cdaa760e01b6000523360045260246000fd5b600260015414611f9f576002600155565b633ee5aeb560e01b60005260046000fd5b60ff60005460a01c16611fbf57565b63d93c066560e01b60005260046000fd5b519069ffffffffffffffffffff8216820361020757565b908160a091031261020757611ffb81611fd0565b91602082015191604081015191611e9f608060608401519301611fd0565b1561202057565b60405162461bcd60e51b815260206004820152600960248201526862616420707269636560b81b6044820152606490fd5b600354604051633fabe5a360e21b81529060a090829060049082906001600160a01b03165afa9081156104b457600091612093575b50611e9f60008213612019565b6120ac915060a03d60a01161146f5761145b8183611ca3565b50505090503861208656fea26469706673582212201f1b18aee90fac99a0615a2d5c07633e62f01faf8d6d076c8d0fe7512d2fe8db64736f6c634300081c0033",
  "linkReferences": {},
  "deployedLinkReferences": {}
}