{"abi":[{"type":"constructor","inputs":[{"name":"owner_","type":"address","internalType":"address"},{"name":"usdc_","type":"address","internalType":"contract IERC20"},{"name":"ethUsdFeed_","type":"address","internalType":"contract IAggregatorV3"},{"name":"agent_","type":"address","internalType":"address"}],"stateMutability":"nonpayable"},{"type":"receive","stateMutability":"payable"},{"type":"function","name":"MAX_OPEN_OFFERS_TO_RETURN","inputs":[],"outputs":[{"name":"","type":"uint256","internalType":"uint256"}],"stateMutability":"view"},{"type":"function","name":"adminEmergencyWithdraw","inputs":[{"name":"offerId","type":"uint256","internalType":"uint256"}],"outputs":[],"stateMutability":"nonpayable"},{"type":"function","name":"agent","inputs":[],"outputs":[{"name":"","type":"address","internalType":"address"}],"stateMutability":"view"},{"type":"function","name":"approvalCount","inputs":[{"name":"","type":"uint256","internalType":"uint256"}],"outputs":[{"name":"","type":"uint256","internalType":"uint256"}],"stateMutability":"view"},{"type":"function","name":"approveOffer","inputs":[{"name":"offerId","type":"uint256","internalType":"uint256"}],"outputs":[],"stateMutability":"nonpayable"},{"type":"function","name":"autoClaim","inputs":[{"name":"offerIds","type":"uint256[]","internalType":"uint256[]"}],"outputs":[],"stateMutability":"nonpayable"},{"type":"function","name":"availableTokenInventoryForToken","inputs":[{"name":"tokenId","type":"bytes32","internalType":"bytes32"}],"outputs":[{"name":"","type":"uint256","internalType":"uint256"}],"stateMutability":"view"},{"type":"function","name":"cancelOffer","inputs":[{"name":"offerId","type":"uint256","internalType":"uint256"}],"outputs":[],"stateMutability":"nonpayable"},{"type":"function","name":"claim","inputs":[{"name":"offerId","type":"uint256","internalType":"uint256"}],"outputs":[],"stateMutability":"nonpayable"},{"type":"function","name":"cleanupExpiredOffers","inputs":[{"name":"maxToClean","type":"uint256","internalType":"uint256"}],"outputs":[],"stateMutability":"nonpayable"},{"type":"function","name":"consignmentGasDeposit","inputs":[{"name":"","type":"uint256","internalType":"uint256"}],"outputs":[{"name":"","type":"uint256","internalType":"uint256"}],"stateMutability":"view"},{"type":"function","name":"consignments","inputs":[{"name":"","type":"uint256","internalType":"uint256"}],"outputs":[{"name":"tokenId","type":"bytes32","internalType":"bytes32"},{"name":"consigner","type":"address","internalType":"address"},{"name":"totalAmount","type":"uint256","internalType":"uint256"},{"name":"remainingAmount","type":"uint256","internalType":"uint256"},{"name":"isNegotiable","type":"bool","internalType":"bool"},{"name":"fixedDiscountBps","type":"uint16","internalType":"uint16"},{"name":"fixedLockupDays","type":"uint32","internalType":"uint32"},{"name":"minDiscountBps","type":"uint16","internalType":"uint16"},{"name":"maxDiscountBps","type":"uint16","internalType":"uint16"},{"name":"minLockupDays","type":"uint32","internalType":"uint32"},{"name":"maxLockupDays","type":"uint32","internalType":"uint32"},{"name":"minDealAmount","type":"uint256","internalType":"uint256"},{"name":"maxDealAmount","type":"uint256","internalType":"uint256"},{"name":"maxPriceVolatilityBps","type":"uint16","internalType":"uint16"},{"name":"isActive","type":"bool","internalType":"bool"},{"name":"createdAt","type":"uint256","internalType":"uint256"}],"stateMutability":"view"},{"type":"function","name":"createConsignment","inputs":[{"name":"tokenId","type":"bytes32","internalType":"bytes32"},{"name":"amount","type":"uint256","internalType":"uint256"},{"name":"isNegotiable","type":"bool","internalType":"bool"},{"name":"fixedDiscountBps","type":"uint16","internalType":"uint16"},{"name":"fixedLockupDays","type":"uint32","internalType":"uint32"},{"name":"minDiscountBps","type":"uint16","internalType":"uint16"},{"name":"maxDiscountBps","type":"uint16","internalType":"uint16"},{"name":"minLockupDays","type":"uint32","internalType":"uint32"},{"name":"maxLockupDays","type":"uint32","internalType":"uint32"},{"name":"minDealAmount","type":"uint256","internalType":"uint256"},{"name":"maxDealAmount","type":"uint256","internalType":"uint256"},{"name":"maxPriceVolatilityBps","type":"uint16","internalType":"uint16"}],"outputs":[{"name":"","type":"uint256","internalType":"uint256"}],"stateMutability":"payable"},{"type":"function","name":"createOfferFromConsignment","inputs":[{"name":"consignmentId","type":"uint256","internalType":"uint256"},{"name":"tokenAmount","type":"uint256","internalType":"uint256"},{"name":"discountBps","type":"uint256","internalType":"uint256"},{"name":"currency","type":"uint8","internalType":"enum OTC.PaymentCurrency"},{"name":"lockupSeconds","type":"uint256","internalType":"uint256"}],"outputs":[{"name":"","type":"uint256","internalType":"uint256"}],"stateMutability":"nonpayable"},{"type":"function","name":"defaultUnlockDelaySeconds","inputs":[],"outputs":[{"name":"","type":"uint256","internalType":"uint256"}],"stateMutability":"view"},{"type":"function","name":"emergencyRefund","inputs":[{"name":"offerId","type":"uint256","internalType":"uint256"}],"outputs":[],"stateMutability":"nonpayable"},{"type":"function","name":"emergencyRefundDeadline","inputs":[],"outputs":[{"name":"","type":"uint256","internalType":"uint256"}],"stateMutability":"view"},{"type":"function","name":"emergencyRefundsEnabled","inputs":[],"outputs":[{"name":"","type":"bool","internalType":"bool"}],"stateMutability":"view"},{"type":"function","name":"ethUsdFeed","inputs":[],"outputs":[{"name":"","type":"address","internalType":"contract IAggregatorV3"}],"stateMutability":"view"},{"type":"function","name":"fulfillOffer","inputs":[{"name":"offerId","type":"uint256","internalType":"uint256"}],"outputs":[],"stateMutability":"payable"},{"type":"function","name":"getOffersForBeneficiary","inputs":[{"name":"who","type":"address","internalType":"address"}],"outputs":[{"name":"","type":"uint256[]","internalType":"uint256[]"}],"stateMutability":"view"},{"type":"function","name":"getOpenOfferIds","inputs":[],"outputs":[{"name":"","type":"uint256[]","internalType":"uint256[]"}],"stateMutability":"view"},{"type":"function","name":"isApprover","inputs":[{"name":"","type":"address","internalType":"address"}],"outputs":[{"name":"","type":"bool","internalType":"bool"}],"stateMutability":"view"},{"type":"function","name":"maxFeedAgeSeconds","inputs":[],"outputs":[{"name":"","type":"uint256","internalType":"uint256"}],"stateMutability":"view"},{"type":"function","name":"maxLockupSeconds","inputs":[],"outputs":[{"name":"","type":"uint256","internalType":"uint256"}],"stateMutability":"view"},{"type":"function","name":"maxTokenPerOrder","inputs":[],"outputs":[{"name":"","type":"uint256","internalType":"uint256"}],"stateMutability":"view"},{"type":"function","name":"minUsdAmount","inputs":[],"outputs":[{"name":"","type":"uint256","internalType":"uint256"}],"stateMutability":"view"},{"type":"function","name":"nextConsignmentId","inputs":[],"outputs":[{"name":"","type":"uint256","internalType":"uint256"}],"stateMutability":"view"},{"type":"function","name":"nextOfferId","inputs":[],"outputs":[{"name":"","type":"uint256","internalType":"uint256"}],"stateMutability":"view"},{"type":"function","name":"offerApprovals","inputs":[{"name":"","type":"uint256","internalType":"uint256"},{"name":"","type":"address","internalType":"address"}],"outputs":[{"name":"","type":"bool","internalType":"bool"}],"stateMutability":"view"},{"type":"function","name":"offers","inputs":[{"name":"","type":"uint256","internalType":"uint256"}],"outputs":[{"name":"consignmentId","type":"uint256","internalType":"uint256"},{"name":"tokenId","type":"bytes32","internalType":"bytes32"},{"name":"beneficiary","type":"address","internalType":"address"},{"name":"tokenAmount","type":"uint256","internalType":"uint256"},{"name":"discountBps","type":"uint256","internalType":"uint256"},{"name":"createdAt","type":"uint256","internalType":"uint256"},{"name":"unlockTime","type":"uint256","internalType":"uint256"},{"name":"priceUsdPerToken","type":"uint256","internalType":"uint256"},{"name":"maxPriceDeviation","type":"uint256","internalType":"uint256"},{"name":"ethUsdPrice","type":"uint256","internalType":"uint256"},{"name":"currency","type":"uint8","internalType":"enum OTC.PaymentCurrency"},{"name":"approved","type":"bool","internalType":"bool"},{"name":"paid","type":"bool","internalType":"bool"},{"name":"fulfilled","type":"bool","internalType":"bool"},{"name":"cancelled","type":"bool","internalType":"bool"},{"name":"payer","type":"address","internalType":"address"},{"name":"amountPaid","type":"uint256","internalType":"uint256"}],"stateMutability":"view"},{"type":"function","name":"openOfferIds","inputs":[{"name":"","type":"uint256","internalType":"uint256"}],"outputs":[{"name":"","type":"uint256","internalType":"uint256"}],"stateMutability":"view"},{"type":"function","name":"owner","inputs":[],"outputs":[{"name":"","type":"address","internalType":"address"}],"stateMutability":"view"},{"type":"function","name":"pause","inputs":[],"outputs":[],"stateMutability":"nonpayable"},{"type":"function","name":"paused","inputs":[],"outputs":[{"name":"","type":"bool","internalType":"bool"}],"stateMutability":"view"},{"type":"function","name":"quoteExpirySeconds","inputs":[],"outputs":[{"name":"","type":"uint256","internalType":"uint256"}],"stateMutability":"view"},{"type":"function","name":"registerToken","inputs":[{"name":"tokenId","type":"bytes32","internalType":"bytes32"},{"name":"tokenAddress","type":"address","internalType":"address"},{"name":"priceOracle","type":"address","internalType":"address"}],"outputs":[],"stateMutability":"nonpayable"},{"type":"function","name":"renounceOwnership","inputs":[],"outputs":[],"stateMutability":"nonpayable"},{"type":"function","name":"requireApproverToFulfill","inputs":[],"outputs":[{"name":"","type":"bool","internalType":"bool"}],"stateMutability":"view"},{"type":"function","name":"requiredApprovals","inputs":[],"outputs":[{"name":"","type":"uint256","internalType":"uint256"}],"stateMutability":"view"},{"type":"function","name":"requiredEthWei","inputs":[{"name":"offerId","type":"uint256","internalType":"uint256"}],"outputs":[{"name":"","type":"uint256","internalType":"uint256"}],"stateMutability":"view"},{"type":"function","name":"requiredGasDepositPerConsignment","inputs":[],"outputs":[{"name":"","type":"uint256","internalType":"uint256"}],"stateMutability":"view"},{"type":"function","name":"requiredUsdcAmount","inputs":[{"name":"offerId","type":"uint256","internalType":"uint256"}],"outputs":[{"name":"","type":"uint256","internalType":"uint256"}],"stateMutability":"view"},{"type":"function","name":"restrictFulfillToBeneficiaryOrApprover","inputs":[],"outputs":[{"name":"","type":"bool","internalType":"bool"}],"stateMutability":"view"},{"type":"function","name":"setAgent","inputs":[{"name":"newAgent","type":"address","internalType":"address"}],"outputs":[],"stateMutability":"nonpayable"},{"type":"function","name":"setApprover","inputs":[{"name":"a","type":"address","internalType":"address"},{"name":"allowed","type":"bool","internalType":"bool"}],"outputs":[],"stateMutability":"nonpayable"},{"type":"function","name":"setEmergencyRefund","inputs":[{"name":"enabled","type":"bool","internalType":"bool"}],"outputs":[],"stateMutability":"nonpayable"},{"type":"function","name":"setEmergencyRefundDeadline","inputs":[{"name":"days_","type":"uint256","internalType":"uint256"}],"outputs":[],"stateMutability":"nonpayable"},{"type":"function","name":"setEthFeed","inputs":[{"name":"ethUsd","type":"address","internalType":"contract IAggregatorV3"}],"outputs":[],"stateMutability":"nonpayable"},{"type":"function","name":"setLimits","inputs":[{"name":"minUsd","type":"uint256","internalType":"uint256"},{"name":"maxToken","type":"uint256","internalType":"uint256"},{"name":"expirySecs","type":"uint256","internalType":"uint256"},{"name":"unlockDelaySecs","type":"uint256","internalType":"uint256"}],"outputs":[],"stateMutability":"nonpayable"},{"type":"function","name":"setMaxFeedAge","inputs":[{"name":"secs","type":"uint256","internalType":"uint256"}],"outputs":[],"stateMutability":"nonpayable"},{"type":"function","name":"setMaxLockup","inputs":[{"name":"maxSecs","type":"uint256","internalType":"uint256"}],"outputs":[],"stateMutability":"nonpayable"},{"type":"function","name":"setRequireApproverToFulfill","inputs":[{"name":"enabled","type":"bool","internalType":"bool"}],"outputs":[],"stateMutability":"nonpayable"},{"type":"function","name":"setRequiredApprovals","inputs":[{"name":"required","type":"uint256","internalType":"uint256"}],"outputs":[],"stateMutability":"nonpayable"},{"type":"function","name":"setRequiredGasDeposit","inputs":[{"name":"amount","type":"uint256","internalType":"uint256"}],"outputs":[],"stateMutability":"nonpayable"},{"type":"function","name":"setRestrictFulfill","inputs":[{"name":"enabled","type":"bool","internalType":"bool"}],"outputs":[],"stateMutability":"nonpayable"},{"type":"function","name":"tokenDeposited","inputs":[{"name":"","type":"bytes32","internalType":"bytes32"}],"outputs":[{"name":"","type":"uint256","internalType":"uint256"}],"stateMutability":"view"},{"type":"function","name":"tokenList","inputs":[{"name":"","type":"uint256","internalType":"uint256"}],"outputs":[{"name":"","type":"bytes32","internalType":"bytes32"}],"stateMutability":"view"},{"type":"function","name":"tokenReserved","inputs":[{"name":"","type":"bytes32","internalType":"bytes32"}],"outputs":[{"name":"","type":"uint256","internalType":"uint256"}],"stateMutability":"view"},{"type":"function","name":"tokens","inputs":[{"name":"","type":"bytes32","internalType":"bytes32"}],"outputs":[{"name":"tokenAddress","type":"address","internalType":"address"},{"name":"decimals","type":"uint8","internalType":"uint8"},{"name":"isActive","type":"bool","internalType":"bool"},{"name":"priceOracle","type":"address","internalType":"address"}],"stateMutability":"view"},{"type":"function","name":"totalUsdForOffer","inputs":[{"name":"offerId","type":"uint256","internalType":"uint256"}],"outputs":[{"name":"","type":"uint256","internalType":"uint256"}],"stateMutability":"view"},{"type":"function","name":"transferOwnership","inputs":[{"name":"newOwner","type":"address","internalType":"address"}],"outputs":[],"stateMutability":"nonpayable"},{"type":"function","name":"unpause","inputs":[],"outputs":[],"stateMutability":"nonpayable"},{"type":"function","name":"usdc","inputs":[],"outputs":[{"name":"","type":"address","internalType":"contract IERC20"}],"stateMutability":"view"},{"type":"function","name":"withdrawConsignment","inputs":[{"name":"consignmentId","type":"uint256","internalType":"uint256"}],"outputs":[],"stateMutability":"nonpayable"},{"type":"function","name":"withdrawGasDeposits","inputs":[{"name":"consignmentIds","type":"uint256[]","internalType":"uint256[]"}],"outputs":[],"stateMutability":"nonpayable"},{"type":"function","name":"withdrawStable","inputs":[{"name":"to","type":"address","internalType":"address"},{"name":"usdcAmount","type":"uint256","internalType":"uint256"},{"name":"ethAmount","type":"uint256","internalType":"uint256"}],"outputs":[],"stateMutability":"nonpayable"},{"type":"event","name":"AgentUpdated","inputs":[{"name":"previous","type":"address","indexed":true,"internalType":"address"},{"name":"newAgent","type":"address","indexed":true,"internalType":"address"}],"anonymous":false},{"type":"event","name":"ApproverUpdated","inputs":[{"name":"approver","type":"address","indexed":true,"internalType":"address"},{"name":"allowed","type":"bool","indexed":false,"internalType":"bool"}],"anonymous":false},{"type":"event","name":"ConsignmentCreated","inputs":[{"name":"consignmentId","type":"uint256","indexed":true,"internalType":"uint256"},{"name":"tokenId","type":"bytes32","indexed":true,"internalType":"bytes32"},{"name":"consigner","type":"address","indexed":true,"internalType":"address"},{"name":"amount","type":"uint256","indexed":false,"internalType":"uint256"}],"anonymous":false},{"type":"event","name":"ConsignmentUpdated","inputs":[{"name":"consignmentId","type":"uint256","indexed":true,"internalType":"uint256"}],"anonymous":false},{"type":"event","name":"ConsignmentWithdrawn","inputs":[{"name":"consignmentId","type":"uint256","indexed":true,"internalType":"uint256"},{"name":"amount","type":"uint256","indexed":false,"internalType":"uint256"}],"anonymous":false},{"type":"event","name":"EmergencyRefund","inputs":[{"name":"offerId","type":"uint256","indexed":true,"internalType":"uint256"},{"name":"recipient","type":"address","indexed":true,"internalType":"address"},{"name":"amount","type":"uint256","indexed":false,"internalType":"uint256"},{"name":"currency","type":"uint8","indexed":false,"internalType":"enum OTC.PaymentCurrency"}],"anonymous":false},{"type":"event","name":"EmergencyRefundEnabled","inputs":[{"name":"enabled","type":"bool","indexed":false,"internalType":"bool"}],"anonymous":false},{"type":"event","name":"FeedsUpdated","inputs":[{"name":"tokenUsdFeed","type":"address","indexed":true,"internalType":"address"},{"name":"ethUsdFeed","type":"address","indexed":true,"internalType":"address"}],"anonymous":false},{"type":"event","name":"GasDepositMade","inputs":[{"name":"consignmentId","type":"uint256","indexed":true,"internalType":"uint256"},{"name":"amount","type":"uint256","indexed":false,"internalType":"uint256"}],"anonymous":false},{"type":"event","name":"GasDepositRefunded","inputs":[{"name":"consignmentId","type":"uint256","indexed":true,"internalType":"uint256"},{"name":"consigner","type":"address","indexed":true,"internalType":"address"},{"name":"amount","type":"uint256","indexed":false,"internalType":"uint256"}],"anonymous":false},{"type":"event","name":"GasDepositWithdrawn","inputs":[{"name":"agent","type":"address","indexed":true,"internalType":"address"},{"name":"amount","type":"uint256","indexed":false,"internalType":"uint256"}],"anonymous":false},{"type":"event","name":"LimitsUpdated","inputs":[{"name":"minUsdAmount","type":"uint256","indexed":false,"internalType":"uint256"},{"name":"maxTokenPerOrder","type":"uint256","indexed":false,"internalType":"uint256"},{"name":"quoteExpirySeconds","type":"uint256","indexed":false,"internalType":"uint256"},{"name":"defaultUnlockDelaySeconds","type":"uint256","indexed":false,"internalType":"uint256"}],"anonymous":false},{"type":"event","name":"MaxFeedAgeUpdated","inputs":[{"name":"maxFeedAgeSeconds","type":"uint256","indexed":false,"internalType":"uint256"}],"anonymous":false},{"type":"event","name":"OfferApproved","inputs":[{"name":"id","type":"uint256","indexed":true,"internalType":"uint256"},{"name":"by","type":"address","indexed":true,"internalType":"address"}],"anonymous":false},{"type":"event","name":"OfferCancelled","inputs":[{"name":"id","type":"uint256","indexed":true,"internalType":"uint256"},{"name":"by","type":"address","indexed":true,"internalType":"address"}],"anonymous":false},{"type":"event","name":"OfferCreated","inputs":[{"name":"id","type":"uint256","indexed":true,"internalType":"uint256"},{"name":"beneficiary","type":"address","indexed":true,"internalType":"address"},{"name":"tokenAmount","type":"uint256","indexed":false,"internalType":"uint256"},{"name":"discountBps","type":"uint256","indexed":false,"internalType":"uint256"},{"name":"currency","type":"uint8","indexed":false,"internalType":"enum OTC.PaymentCurrency"}],"anonymous":false},{"type":"event","name":"OfferPaid","inputs":[{"name":"id","type":"uint256","indexed":true,"internalType":"uint256"},{"name":"payer","type":"address","indexed":true,"internalType":"address"},{"name":"amountPaid","type":"uint256","indexed":false,"internalType":"uint256"}],"anonymous":false},{"type":"event","name":"OwnershipTransferred","inputs":[{"name":"previousOwner","type":"address","indexed":true,"internalType":"address"},{"name":"newOwner","type":"address","indexed":true,"internalType":"address"}],"anonymous":false},{"type":"event","name":"Paused","inputs":[{"name":"account","type":"address","indexed":false,"internalType":"address"}],"anonymous":false},{"type":"event","name":"RefundFailed","inputs":[{"name":"payer","type":"address","indexed":true,"internalType":"address"},{"name":"amount","type":"uint256","indexed":false,"internalType":"uint256"}],"anonymous":false},{"type":"event","name":"RequireApproverFulfillUpdated","inputs":[{"name":"enabled","type":"bool","indexed":false,"internalType":"bool"}],"anonymous":false},{"type":"event","name":"RequiredGasDepositUpdated","inputs":[{"name":"newAmount","type":"uint256","indexed":false,"internalType":"uint256"}],"anonymous":false},{"type":"event","name":"RestrictFulfillUpdated","inputs":[{"name":"enabled","type":"bool","indexed":false,"internalType":"bool"}],"anonymous":false},{"type":"event","name":"StableWithdrawn","inputs":[{"name":"to","type":"address","indexed":true,"internalType":"address"},{"name":"usdcAmount","type":"uint256","indexed":false,"internalType":"uint256"},{"name":"ethAmount","type":"uint256","indexed":false,"internalType":"uint256"}],"anonymous":false},{"type":"event","name":"StorageCleaned","inputs":[{"name":"offersRemoved","type":"uint256","indexed":false,"internalType":"uint256"}],"anonymous":false},{"type":"event","name":"TokenRegistered","inputs":[{"name":"tokenId","type":"bytes32","indexed":true,"internalType":"bytes32"},{"name":"tokenAddress","type":"address","indexed":true,"internalType":"address"},{"name":"priceOracle","type":"address","indexed":true,"internalType":"address"}],"anonymous":false},{"type":"event","name":"TokensClaimed","inputs":[{"name":"id","type":"uint256","indexed":true,"internalType":"uint256"},{"name":"beneficiary","type":"address","indexed":true,"internalType":"address"},{"name":"amount","type":"uint256","indexed":false,"internalType":"uint256"}],"anonymous":false},{"type":"event","name":"Unpaused","inputs":[{"name":"account","type":"address","indexed":false,"internalType":"address"}],"anonymous":false},{"type":"error","name":"AddressEmptyCode","inputs":[{"name":"target","type":"address","internalType":"address"}]},{"type":"error","name":"AddressInsufficientBalance","inputs":[{"name":"account","type":"address","internalType":"address"}]},{"type":"error","name":"EnforcedPause","inputs":[]},{"type":"error","name":"ExpectedPause","inputs":[]},{"type":"error","name":"FailedInnerCall","inputs":[]},{"type":"error","name":"MathOverflowedMulDiv","inputs":[]},{"type":"error","name":"OwnableInvalidOwner","inputs":[{"name":"owner","type":"address","internalType":"address"}]},{"type":"error","name":"OwnableUnauthorizedAccount","inputs":[{"name":"account","type":"address","internalType":"address"}]},{"type":"error","name":"ReentrancyGuardReentrantCall","inputs":[]},{"type":"error","name":"SafeERC20FailedOperation","inputs":[{"name":"token","type":"address","internalType":"address"}]}],"bytecode":{"object":"0x60a0806040523461033257608081614eed803803809161001f8285610336565b833981010312610332576100328161036d565b60208201516001600160a01b03811692918382036103325760408301516001600160a01b038116939084900361033257606061006e910161036d565b906001600160a01b0316801561031f575f8054604051929182906001600160a01b038316907f8be0079c531659141344cd1fd0a4f28419497f9722a3daafe3b4186f6b6457e09080a360018060a81b031916175f55600180556001600555631dcd650060075569021e19e0c9bab24000006008556107086009555f600a55610e10600b556301e13380600c5561ffff19600d5416600d5566038d7ea4c680006011556001601455600160175560ff19601b5416601b5562278d00601c5584156102f257506001600160a01b03169182156102c1576004926020926080528160018060a01b0319600654161760065560018060a01b031960125416176012556040519283809263313ce56760e01b82525afa90811561025e5760089160ff915f916102a2575b5016036102695760206004916040519283809263313ce56760e01b82525afa90811561025e5760069160ff915f9161022f575b5016036101fa57604051614b52908161039b82396080518181816104ba01528181610c33015281816127d801526136830152f35b60405162461bcd60e51b815260206004820152600d60248201526c7573646320646563696d616c7360981b6044820152606490fd5b610251915060203d602011610257575b6102498183610336565b810190610381565b5f6101c6565b503d61023f565b6040513d5f823e3d90fd5b60405162461bcd60e51b8152602060048201526011602482015270657468206665656420646563696d616c7360781b6044820152606490fd5b6102bb915060203d602011610257576102498183610336565b5f610193565b60405162461bcd60e51b8152602060048201526009602482015268189859081859d95b9d60ba1b6044820152606490fd5b62461bcd60e51b8152602060048201526008602482015267626164207573646360c01b6044820152606490fd5b631e4fbdf760e01b5f525f60045260245ffd5b5f80fd5b601f909101601f19168101906001600160401b0382119082101761035957604052565b634e487b7160e01b5f52604160045260245ffd5b51906001600160a01b038216820361033257565b90816020910312610332575160ff81168103610332579056fe6080604052600436101561001a575b3615610018575f80fd5b005b5f3560e01c8063062075cc1461406e5780631003c6f214613fdd57806311d69ceb14613f5f578063121284dc14613efb578063147cd36c14613edd5780631ac6d8ba14613ec05780632014b71c14613b7d578063222a242e14613afe578063265321631461390c578063379607f514613720578063394cf10e146136fe5780633b2fb8c5146136b25780633e413bee1461366e5780633f4ba83a1461360257806340569d2a146135e557806340ad01ea146135bb57806340f5e1b814612f015780634175a56e14612ee657806341ae69e214612e4e578063433fe99714612e3057806348186b0b14612e135780634c707d9214612df25780635415b75414612da957806358e3a77e14612d8c5780635c975abb14612d685780635ef5f02914612d4b5780635f5d065514612d2e5780636b2636ab14612a125780636d218e48146129d557806370e5deb914612600578063715018a6146125a95780637244fe04146124b65780637c941a23146124585780638009b7bd146124305780638456cb59146123d057806388b3729e146121c05780638a72ea6a146120ba5780638ba84da1146120955780638bc8966014611a105780638da5cb5b146119e95780638f2a8492146119c7578063904194a31461196957806399c1aadc1461194c5780639a3992d11461173a5780639ead722214611702578063a075b7c714611650578063a0ab9067146113df578063a1cd50181461123b578063a5d7c10a14611028578063a600afa814610ffe578063bcf685ed14610f5a578063c298b1ad14610e4f578063c55f69d914610e25578063c719a53614610dc7578063c78545d914610940578063ce8e483014610923578063d22dbcf1146108d7578063d6a4f5e8146108ad578063d76fd2e714610827578063dadc1aea14610760578063e343d9b414610743578063ef706adf14610516578063f0ee4a48146103ea578063f1f3d786146103cd578063f2fde38b14610348578063f52a70f21461032b5763f5ff5c760361000e5734610327575f366003190112610327576012546040516001600160a01b039091168152602090f35b5f80fd5b34610327575f366003190112610327576020600a54604051908152f35b34610327576020366003190112610327576103616140d8565b61036961460f565b6001600160a01b031680156103ba575f80546001600160a01b03198116831782556001600160a01b0316907f8be0079c531659141344cd1fd0a4f28419497f9722a3daafe3b4186f6b6457e09080a3005b631e4fbdf760e01b5f525f60045260245ffd5b34610327575f366003190112610327576020600b54604051908152f35b34610327576060366003190112610327576104036140d8565b60243560443561041161460f565b610419614652565b6001600160a01b0383169283156104e55782806104b4575b50508061046f575b7facfca0845eda0bcbd22737cb8526cda0fb6e3deeac93ede1ecb1fabec14843fc9160409182519182526020820152a260018055005b5f80808084875af161047f6143d3565b506104395760405162461bcd60e51b815260206004820152600860248201526732ba34103c3332b960c11b6044820152606490fd5b6104de917f0000000000000000000000000000000000000000000000000000000000000000614672565b8382610431565b60405162461bcd60e51b81526020600482015260096024820152683d32b9379030b2323960b91b6044820152606490fd5b3461032757602036600319011261032757600435610532614652565b61053a614635565b5f81815260186020526040902060028101546001600160a01b03166105608115156141ad565b600a82019081549060ff8260101c161580610735575b156107015733148080156106ee575b80156106da575b80156106c4575b156106955761064a575b6401000000009064ff0000000019161790556003810190815460018201545f52600f6020526105d160405f20918254614265565b9055549081610607575b33837f1f51377b3e685a0e2419f9bb4ba7c07ec54936353ba3d0fb3c6538dab67662225f80a360018055005b6007915f52600460205260405f20905461062660038301918254614376565b905501805460ff8160101c166105db5762ff000019166201000017905581806105db565b61065b600584015460095490614376565b42101561059d5760405162461bcd60e51b815260206004820152600b60248201526a1b9bdd08195e1c1a5c995960aa1b6044820152606490fd5b60405162461bcd60e51b81526020600482015260076024820152660dcde40c2eae8d60cb1b6044820152606490fd5b50335f52601360205260ff60405f205416610593565b506012546001600160a01b0316331461058c565b505f546001600160a01b03163314610585565b60405162461bcd60e51b815260206004820152600c60248201526b185b1c9958591e481c185a5960a21b6044820152606490fd5b5060ff8260181c1615610576565b34610327575f366003190112610327576020601c54604051908152f35b3461032757602036600319011261032757600435805f52601860205260405f209061079860018060a01b0360028401541615156141ad565b60ff600a830154166002811015610813576107e45760209160096107be6107cd93614454565b91015480156107d55790614989565b604051908152f35b506107de614905565b90614989565b60405162461bcd60e51b81526020600482015260076024820152660dcdee8408aa8960cb1b6044820152606490fd5b634e487b7160e01b5f52602160045260245ffd5b34610327576040366003190112610327576108406140d8565b6024359081151590818303610327577fc8821a874072ba4bd135632bdcea405b70de8b2a0693a9bf625bd1643c36d305916108a460209261087f61460f565b60018060a01b031694855f526013845260405f209060ff801983541691151516179055565b604051908152a2005b34610327576020366003190112610327576004355f526010602052602060405f2054604051908152f35b34610327576020366003190112610327576004356108f361460f565b6201518081029080820462015180149015171561090f57601c55005b634e487b7160e01b5f52601160045260245ffd5b34610327575f366003190112610327576020600754604051908152f35b602036600319011261032757600435610957614652565b61095f614635565b5f81815260186020526040902060028101549091906001600160a01b03166109888115156141ad565b600a83019081549060ff8260081c1615610d975760ff8260201c161580610d89575b80610d7a575b6109b99061439b565b6109ca600586015460095490614376565b4211610d4b57600d5460ff8160081c165f14610cbe5750506012546001600160a01b031633148015610ca8575b15610c6b575b610a656001850154805f526002602052610a6060405f20604051610a20816141e4565b606082549260ff60018060a01b03851694858552818160a01c16602086015260a81c16151560408401526001808060a01b03910154169101521515614222565b6146f8565b6007850154908180821115610c5c57610a7d91614265565b612710810290808204612710149015171561090f57610aab91610a9f91614436565b600886015410156145c3565b610ab483614454565b9060ff5f9116600281101561081357610be257506009840154610ade919080156107d55790614989565b90813410610baa57600b84810183905581546201000064ffff010000600160c81b031990911665010000000000600160c81b033360281b16171790915590610b269034614265565b925b0154906040519182527f7fb472248c81d2d2657ad1d37a15db0919a52022b105945bcded16294836943b60203393a380610b63575b60018055005b5f80808084335af1610b736143d3565b50610b5d576040519081527faf73b0b217208b61be286bbc37095bce7eb8b9ccf617244c2f0f154e8e04e3ff60203392a280610b5d565b60405162461bcd60e51b815260206004820152601060248201526f0d2dce6eaccccd2c6d2cadce840cae8d60831b6044820152606490fd5b9390600b92610bf3610c579261495e565b838501819055815465010000000000600160c81b0319163360281b65010000000000600160c81b031617825590805462ff000019166201000017905530337f00000000000000000000000000000000000000000000000000000000000000006146b4565b610b28565b90610c6691614265565b610a7d565b60405162461bcd60e51b815260206004820152601560248201527466756c66696c6c20617070726f766572206f6e6c7960581b6044820152606490fd5b50335f52601360205260ff60405f2054166109f7565b60ff16610ccc575b506109fd565b33148015610d37575b8015610d21575b15610ce75784610cc6565b60405162461bcd60e51b8152602060048201526012602482015271199d5b199a5b1b081c995cdd1c9a58dd195960721b6044820152606490fd5b50335f52601360205260ff60405f205416610cdc565b506012546001600160a01b03163314610cd5565b60405162461bcd60e51b8152602060048201526007602482015266195e1c1a5c995960ca1b6044820152606490fd5b50601882901c60ff16156109b0565b5060ff8260101c16156109aa565b60405162461bcd60e51b81526020600482015260086024820152673737ba1030b8383960c11b6044820152606490fd5b34610327576020366003190112610327577fd3f4cf26f9820e60d3c87594b7988281ea42db6a558d0670f6d98fd241c5cfbf6020610e0361413d565b610e0b61460f565b151560ff19601b541660ff821617601b55604051908152a1005b34610327576020366003190112610327576004355f52600f602052602060405f2054604051908152f35b34610327576020366003190112610327576004356001600160a01b0381169081900361032757610e7d61460f565b60405163313ce56760e01b8152602081600481855afa908115610f4f5760089160ff915f91610f20575b501603610ee757600680546001600160a01b031916821790555f7f34a557dba1637cb357638b5ca960120a9bfa14b86aaa9efaef74bce5267733998180a3005b60405162461bcd60e51b8152602060048201526011602482015270657468206665656420646563696d616c7360781b6044820152606490fd5b610f42915060203d602011610f48575b610f3a8183614200565b8101906145aa565b84610ea7565b503d610f30565b6040513d5f823e3d90fd5b3461032757602036600319011261032757610f736140d8565b610f7b61460f565b6001600160a01b03168015610fcc57601254816001600160a01b0382167fee7760cb405d3beb1072ae2e716857daa45a5dd52bc1383a21173199d32c7dee5f80a36001600160a01b03191617601255005b60405162461bcd60e51b815260206004820152600a6024820152691e995c9bc81859d95b9d60b21b6044820152606490fd5b34610327576020366003190112610327576004355f52600e602052602060405f2054604051908152f35b346103275760203660031901126103275760043560018060a01b036012541633148015611223575b61105990614521565b611061614635565b5f8181526018602052604090206002810154611087906001600160a01b031615156141ad565b600a8101906110a6825460ff8160201c16159081611214575b5061439b565b5f83815260156020908152604080832033845290915290205460ff166111cf576110e96001820154805f526002602052610a6060405f20604051610a20816141e4565b6007820154919082808211156111bf5761110291614265565b915b612710830292808404612710149015171561090f5761112860089161113294614436565b91015410156145c3565b5f8281526015602090815260408083203384528252808320805460ff1916600117905584835260169091529020805461116a90614368565b9055815f52601660205260405f205460145411156111ac575b5033907f4a2698bb88989004e5a2f73686d0fe7c6c15b59414ffe31b59e2e3e7c15712ee5f80a3005b805461ff00191661010017905581611183565b906111c991614265565b91611104565b60405162461bcd60e51b815260206004820152601760248201527f616c726561647920617070726f76656420627920796f750000000000000000006044820152606490fd5b60ff915060101c1615856110a0565b50335f9081526013602052604090205460ff16611050565b34610327576112493661414c565b9060018060a01b0360125416331480156113c7575b61126790614521565b61126f614652565b61127c603283111561455c565b5f915f5b8181106113545783801561130f575f80808084335af161129e6143d3565b50156112d6576040519081527f189a25b5a66c9052ffc86e78804792513df972ae1c9d28b04d3b6933a5c3835560203392a260018055005b60405162461bcd60e51b81526020600482015260116024820152701dda5d1a191c985dd85b0819985a5b1959607a1b6044820152606490fd5b60405162461bcd60e51b815260206004820152601b60248201527f6e6f20676173206465706f7369747320746f20776974686472617700000000006044820152606490fd5b61135f81838561459a565b35805f52600460205260ff600760405f20015460101c1615806113b2575b61138b575b50600101611280565b5f908152601060205260408120805491905590936001916113ab91614376565b9390611382565b50805f52601060205260405f2054151561137d565b50335f9081526013602052604090205460ff1661125e565b34610327576060366003190112610327576004356113fb6140ee565b6044356001600160a01b0381169291908390036103275761141a61460f565b5f828152600260205260409020546001600160a01b031661161c576001600160a01b03169081156115e85760405163313ce56760e01b8152602081600481865afa8015610f4f5760ff915f916115c9575b50166012811161159157600160405191611484836141e4565b84835260208084019182526040808501848152606086018981525f888152600290945291909220945185549351925160ff60a81b90151560a81b1660ff60a01b60a094851b166001600160b01b03199095169386901b86900391821661ffff60a01b1916939093179390931791909117845551929091018054929091166001600160a01b03166001600160a01b0319909216919091179055600354600160401b81101561157d5761155561153f8260018594016003556140ab565b819391549060031b91821b915f19901b19161790565b90557fc6a8e30320e4c33a9a9edb5b316feb50477601b5a0fa02a493aa030cc9ca684e5f80a4005b634e487b7160e01b5f52604160045260245ffd5b60405162461bcd60e51b815260206004820152601060248201526f696e76616c696420646563696d616c7360801b6044820152606490fd5b6115e2915060203d602011610f4857610f3a8183614200565b8561146b565b60405162461bcd60e51b815260206004820152600c60248201526b7a65726f206164647265737360a01b6044820152606490fd5b60405162461bcd60e51b815260206004820152600c60248201526b746f6b656e2065786973747360a01b6044820152606490fd5b346103275760803660031901126103275760443560243560043560643561167561460f565b600c5481116116cb577fe3eb5d4eccdae2d96efa105f65c8db865f9fc72984f2b879a27448fed50d18159360809383600755806008558160095582600a55604051938452602084015260408301526060820152a1005b60405162461bcd60e51b815260206004820152600f60248201526e6c6f636b757020746f6f206c6f6e6760881b6044820152606490fd5b34610327576020366003190112610327576004356003548110156103275761172b6020916140ab565b90549060031b1c604051908152f35b346103275760203660031901126103275760043561175661460f565b61175e614652565b5f81815260186020526040902060028101549091906001600160a01b031680159061178982156141ad565b600a840191825460ff8160101c168061193e575b80611930575b156118fb57600686015462ed4e00810180911161090f5742106118b6577f880f2ef2613b092f1a0a819f294155c98667eb294b7e6bf7a3810278142c1a1c93602093926118a4575b6301000000600160038901549801549263ff0000001916179055805f52600f835260405f2061181b878254614265565b9055805f52600e835260405f20611833878254614265565b90555f526002825261188d858260405f20604051611850816141e4565b606082549260ff60018060a01b03851694858552818160a01c168b86015260a81c16151560408401526001808060a01b0391015416910152614672565b6040519485526001600160a01b031693a360018055005b5f546001600160a01b031692506117eb565b60405162461bcd60e51b815260206004820152601f60248201527f6d757374207761697420313830206461797320616674657220756e6c6f636b006044820152606490fd5b60405162461bcd60e51b815260206004820152600d60248201526c696e76616c696420737461746560981b6044820152606490fd5b5060ff8160201c16156117a3565b5060ff8160181c161561179d565b34610327575f366003190112610327576020601454604051908152f35b34610327576020366003190112610327576004355f526002602052608060405f208054906001808060a01b039101541660ff6040519260018060a01b0381168452818160a01c16602085015260a81c16151560408301526060820152f35b34610327575f36600319011261032757602060ff601b54166040519015158152f35b34610327575f366003190112610327575f546040516001600160a01b039091168152602090f35b346103275760a03660031901126103275760443560043560243560643560028110156103275760843592611a42614652565b611a4a614635565b805f52600460205260405f20936007850160ff815460101c161561205757600586015485101580612049575b1561200e5760038601805490818711611fd057600488015460ff811615611f2a5761ffff8160381c168a101580611f19575b15611edc5762015180850463ffffffff8260581c168110159182611ec8575b505015611e8d575b8754805f52600260205260405f2092604051611aea816141e4565b606085549560018060a01b038716835260ff6020840197818160a01c16895260a81c16151560408401526001808060a01b0391015416910152611b43611b3c60ff611b34856146f8565b965116614412565b858b614a2a565b8b6127100390612710821161090f5761271091611b5f91614423565b0460075411611e565788611b7291614265565b82555f52600f60205260405f20611b8a888254614376565b90555415611e47575b61ffff611bb160175498611ba68a614368565b601755549442614376565b9254169185611e4057611bc2614905565b935b60405195610220870187811067ffffffffffffffff82111761157d57604052865260208601523360408601528660608601528860808601524260a086015260c085015260e0840152610100830152610120820152816101408201525f6101608201525f6101808201525f6101a08201525f6101c08201525f6101e08201525f610200820152835f52601860205260405f2090805182556020810151600183015560018060a01b03604082015116600283019060018060a01b03166bffffffffffffffffffffffff60a01b825416179055606081015160038301556080810151600483015560a0810151600583015560c0810151600683015560e0810151600783015561010081015160088301556101208101516009830155600a820161014082015191600283101561081357815461016082015161018083015162ffffff1990921660ff9095169490941793151560081b61ff00169390931792151560101b62ff000016929092178155600b9161020091611d96906101a083015181546101c08501516101e08601516301000000600160c81b031990921692151560181b63ff000000169290921791151560201b64ff00000000169190911760289190911b65010000000000600160c81b0316179055565b0151910155335f52601a60205260405f208054600160401b81101561157d5761153f8186936001611dc9940181556140c3565b905560195490600160401b82101561157d5760209484611df761153f856001611e0d970160195560196140c3565b90556040519384528584015260408301906141a0565b817f2985a0f55b778a906ac6ba5d8cd38741b9763eb5a63e13a91f87ee555221735660603393a360018055604051908152f35b5f93611bc4565b815462ff000019168255611b93565b60405162461bcd60e51b815260206004820152600f60248201526e1b5a5b881d5cd9081b9bdd081b595d608a1b6044820152606490fd5b60405162461bcd60e51b81526020600482015260136024820152726c6f636b7570206f7574206f662072616e676560681b6044820152606490fd5b60781c63ffffffff16101590508a80611ac7565b60405162461bcd60e51b8152602060048201526015602482015274646973636f756e74206f7574206f662072616e676560581b6044820152606490fd5b5061ffff8160481c168a1115611aa8565b61ffff8160081c168a03611f8b5763ffffffff9060181c166201518085040315611acf5760405162461bcd60e51b815260206004820152601560248201527406d75737420757365206669786564206c6f636b757605c1b6044820152606490fd5b60405162461bcd60e51b815260206004820152601760248201527f6d7573742075736520666978656420646973636f756e740000000000000000006044820152606490fd5b60405162461bcd60e51b8152602060048201526016602482015275696e73756666696369656e742072656d61696e696e6760501b6044820152606490fd5b60405162461bcd60e51b8152602060048201526013602482015272616d6f756e74206f7574206f662072616e676560681b6044820152606490fd5b506006860154851115611a76565b60405162461bcd60e51b8152602060048201526016602482015275636f6e7369676e6d656e74206e6f742061637469766560501b6044820152606490fd5b34610327575f36600319011261032757602060ff600d5460081c166040519015158152f35b34610327576020366003190112610327576004355f52601860205261022060405f2080549060018101549060018060a01b03600282015416600382015460048301546005840154600685015490600786015492600887015494600988015496600b600a8a0154990154996040519b8c5260208c015260408b015260608a0152608089015260a088015260c087015260e086015261010085015261012084015261216a610140840160ff83166141a0565b60ff8160081c16151561016084015260ff8160101c16151561018084015260ff8160181c1615156101a084015260ff8160201c1615156101c084015260018060a01b039060281c166101e0830152610200820152f35b34610327576121ce3661414c565b6012546001600160a01b0316331480156123b8575b6121ec90614521565b6121f4614652565b6121fc614635565b612209603282111561455c565b5f5b8181106122185760018055005b80612226600192848661459a565b35801580156123ac575b6123a657805f52601860205260405f2090838060a01b036002830154169182158015612394575b8015612383575b8015612372575b61236a576006810154421061236a578481015490815f52600260205260405f209160405192612293846141e4565b80549060ff898060a01b03831692838752818160a01c16602088015260a81c161515604086015288808060a01b03910154166060850152156123605761235282867f880f2ef2613b092f1a0a819f294155c98667eb294b7e6bf7a3810278142c1a1c95600a946003602097015495869401630100000063ff00000019825416179055805f52600f875260405f2061232b858254614265565b90555f52600e865260405f20612342848254614265565b90558a8060a01b03905116614672565b604051908152a35b0161220b565b505050505061235a565b50505061235a565b5060ff600a82015460181c16612265565b5060ff600a82015460201c1661225e565b5060ff600a82015460101c1615612257565b5061235a565b50601754811015612230565b50335f9081526013602052604090205460ff166121e3565b34610327575f366003190112610327576123e861460f565b6123f0614635565b5f805460ff60a01b1916600160a01b1790556040513381527f62e78cea01bee320cd4e420270b5ea74000d11b0c9f74754ebdbfc544b05a25890602090a1005b34610327575f366003190112610327576006546040516001600160a01b039091168152602090f35b34610327576020366003190112610327577ff863082dfb2e420e73e3835cf6a5ca9975a68401d1b1e1819aa8edb08005109a602061249461413d565b61249c61460f565b151560ff19600d541660ff821617600d55604051908152a1005b34610327576020366003190112610327576004355f52600460205261020060405f2080549060ff60018060a01b03600183015416916002810154600382015463ffffffff600484015460058501549260068601549460086007880154970154986040519a8b5260208b015260408a015260608901528581161515608089015261ffff8160081c1660a0890152818160181c1660c089015261ffff8160381c1660e089015261ffff8160481c16610100890152818160581c1661012089015260781c1661014087015261016086015261018085015261ffff81166101a085015260101c1615156101c08301526101e0820152f35b34610327575f366003190112610327576125c161460f565b5f80546001600160a01b0319811682556001600160a01b03167f8be0079c531659141344cd1fd0a4f28419497f9722a3daafe3b4186f6b6457e08280a3005b346103275760203660031901126103275760043561261c614652565b60ff601b541615612990575f81815260186020526040902060028101546001600160a01b0316919061264f8315156141ad565b600a81019081549060ff8260101c1680612982575b80612974575b1561292f57602882901c6001600160a01b031694338614908115612925575b508015612912575b80156128fe575b80156128e8575b156128a3576126b56005820154601c5490614376565b4210801590612888575b15612843578054906001810154600b60038301549201549464010000000060ff86169564ff0000000019161790555f52600f60205260405f20612703828254614265565b905581612801575b5050600281101561081357806127a9575f80808085885af161272b6143d3565b5015612770577fbaaee93bed811019da888f1cb314bc4d6a1f81639c738931b3e400e3d3568b7c916127696040925b835192835260208301906141a0565ba360018055005b60405162461bcd60e51b8152602060048201526011602482015270115512081c99599d5b990819985a5b1959607a1b6044820152606490fd5b816127696040926127fc7fbaaee93bed811019da888f1cb314bc4d6a1f81639c738931b3e400e3d3568b7c95887f0000000000000000000000000000000000000000000000000000000000000000614672565b61275a565b6007915f52600460205260405f209061281f60038301918254614376565b905501805460ff8160101c1661270b5762ff0000191662010000179055848061270b565b60405162461bcd60e51b815260206004820152601e60248201527f746f6f206561726c7920666f7220656d657267656e637920726566756e6400006044820152606490fd5b50600681015462278d00810180911161090f574210156126bf565b60405162461bcd60e51b815260206004820152601960248201527f6e6f7420617574686f72697a656420666f7220726566756e64000000000000006044820152606490fd5b50335f52601360205260ff60405f20541661269f565b506012546001600160a01b03163314612698565b505f546001600160a01b03163314612691565b9050331486612689565b60405162461bcd60e51b815260206004820152601860248201527f696e76616c696420737461746520666f7220726566756e6400000000000000006044820152606490fd5b5060ff8260201c161561266a565b5060ff8260181c1615612664565b60405162461bcd60e51b815260206004820152601a60248201527f656d657267656e637920726566756e64732064697361626c65640000000000006044820152606490fd5b34610327576020366003190112610327576001600160a01b036129f66140d8565b165f526013602052602060ff60405f2054166040519015158152f35b3461032757602036600319011261032757600435612a2e614652565b5f81815260046020526040902060018101546001600160a01b03163303612cf9576007810180549060ff8260101c1615612cc75760038301908154938415612c8c575492855f52601060205260405f205493805f52600260205260405f209160405192612a9a846141e4565b80549060ff60018060a01b03831692838752818160a01c16602088015260a81c16151560408601526001808060a01b0391015416606085015215612c5757815f52600e6020528660405f205410612c1257612b339487945f9262ff000019169055555f52600e60205260405f20612b12838254614265565b90555f868152601060205260408120555133906001600160a01b0316614672565b80612b6b575b5060207f3dd02a954fe828adfd7751fff7ad2d1808ab46d491c857dfcc6230de19e391a591604051908152a260018055005b5f80808084335af1612b7b6143d3565b5015612bd9577f3dd02a954fe828adfd7751fff7ad2d1808ab46d491c857dfcc6230de19e391a591602091604051908152847fc841337ce53a0f69ac0a42e2ecc859f367843075940f41fdfd63a65dbff9fc19843393a39150612b39565b60405162461bcd60e51b815260206004820152601160248201527019d85cc81c99599d5b990819985a5b1959607a1b6044820152606490fd5b60405162461bcd60e51b815260206004820152601e60248201527f696e73756666696369656e74206465706f73697465642062616c616e636500006044820152606490fd5b60405162461bcd60e51b815260206004820152600d60248201526c34b73b30b634b2103a37b5b2b760991b6044820152606490fd5b60405162461bcd60e51b81526020600482015260136024820152726e6f7468696e6720746f20776974686472617760681b6044820152606490fd5b60405162461bcd60e51b815260206004820152600a6024820152696e6f742061637469766560b01b6044820152606490fd5b60405162461bcd60e51b815260206004820152600d60248201526c3737ba1031b7b739b4b3b732b960991b6044820152606490fd5b34610327575f366003190112610327576020601754604051908152f35b34610327575f366003190112610327576020600854604051908152f35b34610327575f36600319011261032757602060ff5f5460a01c166040519015158152f35b34610327575f366003190112610327576020601154604051908152f35b3461032757604036600319011261032757612dc26140ee565b6004355f52601560205260405f209060018060a01b03165f52602052602060ff60405f2054166040519015158152f35b3461032757602036600319011261032757612e0b61460f565b600435600c55005b34610327575f366003190112610327576020600954604051908152f35b346103275760203660031901126103275760206107cd600435614454565b3461032757602036600319011261032757600435612e6a61460f565b67016345785d8a00008111612eaa576020817f3f02cac10813953e05e86f59dedf68f86fade7712279751ea10e50fe57f83ad192601155604051908152a1005b60405162461bcd60e51b81526020600482015260146024820152730cec2e640c8cae0dee6d2e840e8dede40d0d2ced60631b6044820152606490fd5b34610327575f36600319011261032757602060405160648152f35b610180366003190112610327576004356024356044358015158091036103275760643561ffff8116809103610327576084359063ffffffff82168092036103275760a4359061ffff82168092036103275760c4359261ffff84168094036103275760e4359163ffffffff831680930361032757610104359363ffffffff85168095036103275761012435926101443593610164359961ffff8b16809b0361032757612faa614652565b612fb2614635565b8b5f52600260205260405f209060405191612fcc836141e4565b80546001600160a01b03808216855260ff60a083901c8116602087015260a89290921c909116158015604086015260019092015416606084015261358357801561355057868311613514578985116134d65788881161349a5760115434106134555781516040516370a0823160e01b81523060048201529190602090839060249082906001600160a01b03165afa918215610f4f575f92613420575b5060249261308560209260018060a01b03835116309033906146b4565b516040516370a0823160e01b815230600482015293849182906001600160a01b03165afa8015610f4f575f906133ec575b6130c09250614265565b9889156133b0578b5f52600e60205260405f206130de8b8254614376565b90556005549a6130ed8c614368565b6005556040519661020088019388851067ffffffffffffffff86111761157d5760089a8f9a6101e09b8f976040528b5260208b019d8e33905260408c019688885260608d0198895260808d015260a08c019a8b5260c08c0198895260e08c01998a526101008c01526101208b01526101408a01526101608901526101808801526101a087015260016101c087015242878701528a5f52600460205260405f209886518a5560018060a01b0390511660018a019060018060a01b03166bffffffffffffffffffffffff60a01b82541617905551600289015551600388015560048701926131eb60808601511515859060ff801983541691151516179055565b5168ffff0000000000000066ffffffff0000008554935160181b16935160381b169061ffff60481b61010087015160481b169163ffffffff60581b61012088015160581b169363ffffffff60781b61014089015160781b169563ffffffff60781b199363ffffffff60581b199262ffff0061ffff60481b19928e1b169068ffffffffffffffff0019161716171617161717179055610160810151600585015561018081015160068501556132d16007850161ffff6101a08401511661ffff198254161781556101c0830151151562ff0000825491151560101b169062ff00001916179055565b0151910155601154825f5260106020528060405f2055827f7d2fe73377c27fea70551d047fa2b5d20fde8d4f5f4de7607cfa68e791edc0386020604051848152a2803411613356575b50602092604051918252827f36ffd597f786348fd508cae0644719351def3fea42053a8ad3a9d22716896bea853394a460018055604051908152f35b5f8080613364819434614265565b335af161336f6143d3565b501561337b578361331a565b60405162461bcd60e51b815260206004820152600d60248201526c1c99599d5b990819985a5b1959609a1b6044820152606490fd5b60405162461bcd60e51b81526020600482015260146024820152731e995c9bc8185b5bdd5b9d081c9958d95a5d995960621b6044820152606490fd5b506020823d602011613418575b8161340660209383614200565b81010312610327576130c091516130b6565b3d91506133f9565b9091506020813d60201161344d575b8161343c60209383614200565b810103126103275751906024613068565b3d915061342f565b60405162461bcd60e51b815260206004820152601860248201527f696e73756666696369656e7420676173206465706f73697400000000000000006044820152606490fd5b60405162461bcd60e51b8152602060048201526014602482015273696e76616c6964206c6f636b75702072616e676560601b6044820152606490fd5b60405162461bcd60e51b8152602060048201526016602482015275696e76616c696420646973636f756e742072616e676560501b6044820152606490fd5b60405162461bcd60e51b8152602060048201526014602482015273696e76616c6964206465616c20616d6f756e747360601b6044820152606490fd5b60405162461bcd60e51b815260206004820152600b60248201526a1e995c9bc8185b5bdd5b9d60aa1b6044820152606490fd5b60405162461bcd60e51b815260206004820152601060248201526f746f6b656e206e6f742061637469766560801b6044820152606490fd5b34610327576020366003190112610327576004355f526016602052602060405f2054604051908152f35b34610327575f366003190112610327576020600554604051908152f35b34610327575f3660031901126103275761361a61460f565b5f5460ff8160a01c161561365f5760ff60a01b19165f556040513381527f5db9ee0a495bf2e6ff9c91a7834c1ba4fdd244a5e8aa4e537bd38aeae4b073aa90602090a1005b638dfc202b60e01b5f5260045ffd5b34610327575f366003190112610327576040517f00000000000000000000000000000000000000000000000000000000000000006001600160a01b03168152602090f35b34610327576020366003190112610327577f6b51c7df853e7ef8a7b6bda387bb4a86285f93acf5f0819f0e94de7e4e9227c860206004356136f161460f565b80600b55604051908152a1005b34610327575f36600319011261032757602060ff600d54166040519015158152f35b346103275760203660031901126103275760043561373c614652565b613744614635565b5f81815260186020526040902060028101546001600160a01b0316919061376c8315156141ad565b600a810180549160ff8360101c16806138fe575b806138ef575b61378f9061439b565b600681015442106138c15784330361388a577f880f2ef2613b092f1a0a819f294155c98667eb294b7e6bf7a3810278142c1a1c926020926301000000600160038501549401549263ff0000001916179055805f52600f835260405f206137f6838254614265565b9055805f52600e835260405f2061380e838254614265565b90555f526002825261387d818660405f2061386e6040519161382f836141e4565b80549060ff60018060a01b03831692838652818160a01c168b87015260a81c16151560408501526001808060a01b039101541660608401521515614222565b516001600160a01b0316614672565b604051908152a360018055005b60405162461bcd60e51b815260206004820152600f60248201526e6e6f742062656e656669636961727960881b6044820152606490fd5b60405162461bcd60e51b81526020600482015260066024820152651b1bd8dad95960d21b6044820152606490fd5b50601883901c60ff1615613786565b5060ff8360201c1615613780565b34610327575f366003190112610327576019546064811115613af857606319810181811161090f575b5f91815b81811080613aee575b156139d15761395081614093565b90549060031b1c5f52601860205260405f20600a8101549060ff8260201c161591826139c2575b50816139a7575b50613992575b61398d90614368565b613939565b9261399f61398d91614368565b939050613984565b6139b991506005015460095490614376565b4211158561397e565b60101c60ff1615915086613977565b50906139dc83614383565b926139ea6040519485614200565b808452601f196139f982614383565b013660208601375f915b83811080613ae5575b15613ad357613a1a81614093565b90549060031b1c5f52601860205260405f20600a8101549060ff8260201c16159182613ac4575b5081613aa9575b50613a5c575b613a5790614368565b613a03565b91613a6683614093565b90549060031b1c92613a7782614368565b938651831015613a95576020613a579360051b880101529050613a4e565b634e487b7160e01b5f52603260045260245ffd5b613abb91506005015460095490614376565b42111586613a48565b60101c60ff1615915087613a41565b60405180613ae18782614104565b0390f35b50818310613a0c565b5060648410613942565b5f613935565b3461032757602036600319011261032757600435613b1a61460f565b80151580613b72575b15613b2d57601455005b60405162461bcd60e51b815260206004820152601a60248201527f696e76616c696420726571756972656420617070726f76616c730000000000006044820152606490fd5b50600a811115613b23565b3461032757602036600319011261032757600435613b99614635565b80151580613eb5575b15613e82575f905f5b601954811080613e79575b15613cf257613bc481614093565b90549060031b1c5f52601860205260405f2060018060a01b03600282015416151580613ce0575b80613cce575b80613ca8575b613c0b575b50613c0690614368565b613bab565b613c06919381600a613c5e930164010000000064ff00000000198254161790556003810190815460018201545f52600f602052613c4d60405f20918254614265565b9055549081613c65575b5050614368565b9290613bfc565b6007915f52600460205260405f209054613c8460038301918254614376565b905501805460ff8160101c16613c575762ff00001916620100001790558580613c57565b50613cba600582015460095490614376565b62015180810180911161090f574211613bf7565b5060ff600a82015460201c1615613bf1565b5060ff600a82015460101c1615613beb565b82613cf957005b5f80805b601954831080613e6f575b15613dee57613d1683614093565b905460039190911b1c5f81815260186020526040902060028101546001600160a01b031615159081613ddb575b81613dc8575b81613da0575b5015613d8b5781613d6b9185613d719403613d77575b50614368565b92614368565b91613cfd565b613d8361153f83614093565b905585613d65565b509190613d9a613d7191614368565b91614368565b613db291506005015460095490614376565b62015180810180911161090f5742111585613d4f565b600a81015460101c60ff16159150613d49565b600a81015460201c60ff16159150613d43565b91505b60195482811115613e38578015613e24575f1901613e0e81614093565b8154905f199060031b1b19169055601955613df1565b634e487b7160e01b5f52603160045260245ffd5b50905080613e4257005b60207f9ddcd36b168776e324d99e26df4ddc8da838a0521965aab1cc126e62153455bb91604051908152a1005b5060648210613d08565b50818310613bb6565b60405162461bcd60e51b815260206004820152600b60248201526a0d2dcecc2d8d2c840dac2f60ab1b6044820152606490fd5b506064811115613ba2565b34610327575f366003190112610327576020600c54604051908152f35b346103275760203660031901126103275760206107cd600435614272565b34610327576020366003190112610327577f32aaf86ee178a234a949738196b431665f8042b755c7922bc2c40e6e51fbe9046020613f3761413d565b613f3f61460f565b1515600d5461ff008260081b169061ff00191617600d55604051908152a1005b34610327576020366003190112610327576001600160a01b03613f806140d8565b165f52601a60205260405f206040519081602082549182815201915f5260205f20905f5b818110613fc757613ae185613fbb81870382614200565b60405191829182614104565b8254845260209093019260019283019201613fa4565b3461032757602036600319011261032757600435805f52601860205260ff600a60405f2061401860018060a01b0360028301541615156141ad565b01541660028110156108135760010361403e576107cd614039602092614454565b61495e565b60405162461bcd60e51b81526020600482015260086024820152676e6f74205553444360c01b6044820152606490fd5b34610327576020366003190112610327576004356019548110156103275761172b6020915b601954811015613a955760195f5260205f2001905f90565b600354811015613a955760035f5260205f2001905f90565b8054821015613a95575f5260205f2001905f90565b600435906001600160a01b038216820361032757565b602435906001600160a01b038216820361032757565b60206040818301928281528451809452019201905f5b8181106141275750505090565b825184526020938401939092019160010161411a565b60043590811515820361032757565b9060206003198301126103275760043567ffffffffffffffff811161032757826023820112156103275780600401359267ffffffffffffffff84116103275760248460051b83010111610327576024019190565b9060028210156108135752565b156141b457565b60405162461bcd60e51b815260206004820152600860248201526737379037b33332b960c11b6044820152606490fd5b6080810190811067ffffffffffffffff82111761157d57604052565b90601f8019910116810190811067ffffffffffffffff82111761157d57604052565b1561422957565b60405162461bcd60e51b81526020600482015260146024820152731d1bdad95b881b9bdd081c9959da5cdd195c995960621b6044820152606490fd5b9190820391821161090f57565b805f5260026020526024602060405f206142d160405191614292836141e4565b80549060ff60018060a01b03831692838652818160a01c168787015260a81c16151560408501526001808060a01b039101541660608401521515614222565b516040516370a0823160e01b815230600482015292839182906001600160a01b03165afa908115610f4f575f91614336575b50815f52600f60205260405f205481106143305761432d915f52600f60205260405f205490614265565b90565b50505f90565b90506020813d602011614360575b8161435160209383614200565b8101031261032757515f614303565b3d9150614344565b5f19811461090f5760010190565b9190820180921161090f57565b67ffffffffffffffff811161157d5760051b60200190565b156143a257565b60405162461bcd60e51b815260206004820152600960248201526862616420737461746560b81b6044820152606490fd5b3d1561440d573d9067ffffffffffffffff821161157d5760405191614402601f8201601f191660200184614200565b82523d5f602084013e565b606090565b60ff16604d811161090f57600a0a90565b8181029291811591840414171561090f57565b8115614440570490565b634e487b7160e01b5f52601260045260245ffd5b5f908152601860205260409020600281015461447a906001600160a01b031615156141ad565b60018101545f52600260205260046144ff6144ef60ff60405f206144e8604051916144a4836141e4565b80546001600160a01b0380821680865260a083901c87166020870190815260a89390931c871615156040870152600190930154166060909401939093521515614222565b5116614412565b6003840154600785015490614a2a565b9101546127100390612710821161090f576127109161451d91614423565b0490565b1561452857565b60405162461bcd60e51b815260206004820152600c60248201526b2737ba1030b8383937bb32b960a11b6044820152606490fd5b1561456357565b60405162461bcd60e51b815260206004820152600f60248201526e626174636820746f6f206c6172676560881b6044820152606490fd5b9190811015613a955760051b0190565b90816020910312610327575160ff811681036103275790565b156145ca57565b60405162461bcd60e51b815260206004820152601960248201527f707269636520766f6c6174696c697479206578636565646564000000000000006044820152606490fd5b5f546001600160a01b0316330361462257565b63118cdaa760e01b5f523360045260245ffd5b60ff5f5460a01c1661464357565b63d93c066560e01b5f5260045ffd5b600260015414614663576002600155565b633ee5aeb560e01b5f5260045ffd5b60405163a9059cbb60e01b60208201526001600160a01b0390921660248301526044808301939093529181526146b2916146ad606483614200565b6149b6565b565b6040516323b872dd60e01b60208201526001600160a01b0392831660248201529290911660448301526064808301939093529181526146b2916146ad608483614200565b5f526002602052600460a0606060405f2060405190614716826141e4565b60ff8154600180871b03811684528181871c16602085015260a81c161515604083015260018080861b0391015416918291015260405192838092633fabe5a360e21b82525afa8015610f4f575f80915f915f916147c0575b8394509069ffffffffffffffffffff8061479a936147905f61432d9813614859565b1691161015614891565b80151590816147aa575b506148cb565b6147b5915042614265565b600b5410155f6147a4565b5050505061432d69ffffffffffffffffffff61479a6147f7829460a03d60a011614809575b6147ef8183614200565b810190614827565b929750879650945090925061476e9050565b503d6147e5565b519069ffffffffffffffffffff8216820361032757565b908160a09103126103275761483b81614810565b9160208201519160408101519161432d608060608401519301614810565b1561486057565b60405162461bcd60e51b815260206004820152600960248201526862616420707269636560b81b6044820152606490fd5b1561489857565b60405162461bcd60e51b815260206004820152600b60248201526a1cdd185b19481c9bdd5b9960aa1b6044820152606490fd5b156148d257565b60405162461bcd60e51b815260206004820152600b60248201526a7374616c6520707269636560a81b6044820152606490fd5b600654604051633fabe5a360e21b81529060a090829060049082906001600160a01b03165afa8015610f4f575f80915f915f916147c0578394509069ffffffffffffffffffff8061479a936147905f61432d9813614859565b6305f5e100620f4240614972828285614a2a565b920961497b5790565b6001810180911161090f5790565b9061499d81670de0b6b3a764000084614a2a565b91811561444057670de0b6b3a7640000900961497b5790565b5f806149de9260018060a01b03169360208151910182865af16149d76143d3565b9083614abe565b8051908115159182614a06575b50506149f45750565b635274afe760e01b5f5260045260245ffd5b81925090602091810103126103275760200151801590811503610327575f806149eb565b9091828202915f1984820993838086109503948086039514614ab15784831115614aa257829109815f0382168092046002816003021880820260020302808202600203028082026002030280820260020302808202600203028091026002030293600183805f03040190848311900302920304170290565b63227bc15360e01b5f5260045ffd5b50509061432d9250614436565b90614ae25750805115614ad357805190602001fd5b630a12f52160e11b5f5260045ffd5b81511580614b13575b614af3575090565b639996b31560e01b5f9081526001600160a01b0391909116600452602490fd5b50803b15614aeb56fea264697066735822122069077a1384e7c12ba641880f1dc6297e60a43abb9f2c0c58bdf026d830844d2164736f6c634300081a0033","linkReferences":{}},"methodIdentifiers":{"MAX_OPEN_OFFERS_TO_RETURN()":"4175a56e","adminEmergencyWithdraw(uint256)":"9a3992d1","agent()":"f5ff5c76","approvalCount(uint256)":"40ad01ea","approveOffer(uint256)":"a5d7c10a","autoClaim(uint256[])":"88b3729e","availableTokenInventoryForToken(bytes32)":"147cd36c","cancelOffer(uint256)":"ef706adf","claim(uint256)":"379607f5","cleanupExpiredOffers(uint256)":"2014b71c","consignmentGasDeposit(uint256)":"d6a4f5e8","consignments(uint256)":"7244fe04","createConsignment(bytes32,uint256,bool,uint16,uint32,uint16,uint16,uint32,uint32,uint256,uint256,uint16)":"40f5e1b8","createOfferFromConsignment(uint256,uint256,uint256,uint8,uint256)":"8bc89660","defaultUnlockDelaySeconds()":"f52a70f2","emergencyRefund(uint256)":"70e5deb9","emergencyRefundDeadline()":"e343d9b4","emergencyRefundsEnabled()":"8f2a8492","ethUsdFeed()":"8009b7bd","fulfillOffer(uint256)":"c78545d9","getOffersForBeneficiary(address)":"11d69ceb","getOpenOfferIds()":"26532163","isApprover(address)":"6d218e48","maxFeedAgeSeconds()":"f1f3d786","maxLockupSeconds()":"1ac6d8ba","maxTokenPerOrder()":"5ef5f029","minUsdAmount()":"ce8e4830","nextConsignmentId()":"40569d2a","nextOfferId()":"5f5d0655","offerApprovals(uint256,address)":"5415b754","offers(uint256)":"8a72ea6a","openOfferIds(uint256)":"062075cc","owner()":"8da5cb5b","pause()":"8456cb59","paused()":"5c975abb","quoteExpirySeconds()":"48186b0b","registerToken(bytes32,address,address)":"a0ab9067","renounceOwnership()":"715018a6","requireApproverToFulfill()":"8ba84da1","requiredApprovals()":"99c1aadc","requiredEthWei(uint256)":"dadc1aea","requiredGasDepositPerConsignment()":"58e3a77e","requiredUsdcAmount(uint256)":"1003c6f2","restrictFulfillToBeneficiaryOrApprover()":"394cf10e","setAgent(address)":"bcf685ed","setApprover(address,bool)":"d76fd2e7","setEmergencyRefund(bool)":"c719a536","setEmergencyRefundDeadline(uint256)":"d22dbcf1","setEthFeed(address)":"c298b1ad","setLimits(uint256,uint256,uint256,uint256)":"a075b7c7","setMaxFeedAge(uint256)":"3b2fb8c5","setMaxLockup(uint256)":"4c707d92","setRequireApproverToFulfill(bool)":"121284dc","setRequiredApprovals(uint256)":"222a242e","setRequiredGasDeposit(uint256)":"41ae69e2","setRestrictFulfill(bool)":"7c941a23","tokenDeposited(bytes32)":"a600afa8","tokenList(uint256)":"9ead7222","tokenReserved(bytes32)":"c55f69d9","tokens(bytes32)":"904194a3","totalUsdForOffer(uint256)":"433fe997","transferOwnership(address)":"f2fde38b","unpause()":"3f4ba83a","usdc()":"3e413bee","withdrawConsignment(uint256)":"6b2636ab","withdrawGasDeposits(uint256[])":"a1cd5018","withdrawStable(address,uint256,uint256)":"f0ee4a48"},"id":1}