{
  "abi": [
    {
      "type": "constructor",
      "inputs": [
        {
          "name": "owner_",
          "type": "address",
          "internalType": "address"
        },
        {
          "name": "usdc_",
          "type": "address",
          "internalType": "contract IERC20"
        },
        {
          "name": "ethUsdFeed_",
          "type": "address",
          "internalType": "contract IAggregatorV3"
        },
        {
          "name": "agent_",
          "type": "address",
          "internalType": "address"
        }
      ],
      "stateMutability": "payable"
    },
    {
      "type": "receive",
      "stateMutability": "payable"
    },
    {
      "type": "function",
      "name": "MAX_OPEN_OFFERS_TO_RETURN",
      "inputs": [],
      "outputs": [
        {
          "name": "",
          "type": "uint256",
          "internalType": "uint256"
        }
      ],
      "stateMutability": "view"
    },
    {
      "type": "function",
      "name": "acceptOwnership",
      "inputs": [],
      "outputs": [],
      "stateMutability": "nonpayable"
    },
    {
      "type": "function",
      "name": "adminEmergencyWithdraw",
      "inputs": [
        {
          "name": "offerId",
          "type": "uint256",
          "internalType": "uint256"
        }
      ],
      "outputs": [],
      "stateMutability": "nonpayable"
    },
    {
      "type": "function",
      "name": "agent",
      "inputs": [],
      "outputs": [
        {
          "name": "",
          "type": "address",
          "internalType": "address"
        }
      ],
      "stateMutability": "view"
    },
    {
      "type": "function",
      "name": "approvalCount",
      "inputs": [
        {
          "name": "",
          "type": "uint256",
          "internalType": "uint256"
        }
      ],
      "outputs": [
        {
          "name": "",
          "type": "uint256",
          "internalType": "uint256"
        }
      ],
      "stateMutability": "view"
    },
    {
      "type": "function",
      "name": "approveOffer",
      "inputs": [
        {
          "name": "offerId",
          "type": "uint256",
          "internalType": "uint256"
        }
      ],
      "outputs": [],
      "stateMutability": "nonpayable"
    },
    {
      "type": "function",
      "name": "authorizedRegistrar",
      "inputs": [
        {
          "name": "",
          "type": "address",
          "internalType": "address"
        }
      ],
      "outputs": [
        {
          "name": "",
          "type": "bool",
          "internalType": "bool"
        }
      ],
      "stateMutability": "view"
    },
    {
      "type": "function",
      "name": "autoClaim",
      "inputs": [
        {
          "name": "offerIds",
          "type": "uint256[]",
          "internalType": "uint256[]"
        }
      ],
      "outputs": [],
      "stateMutability": "nonpayable"
    },
    {
      "type": "function",
      "name": "availableTokenInventoryForToken",
      "inputs": [
        {
          "name": "tokenId",
          "type": "bytes32",
          "internalType": "bytes32"
        }
      ],
      "outputs": [
        {
          "name": "",
          "type": "uint256",
          "internalType": "uint256"
        }
      ],
      "stateMutability": "view"
    },
    {
      "type": "function",
      "name": "calculateAgentCommission",
      "inputs": [
        {
          "name": "discountBps",
          "type": "uint256",
          "internalType": "uint256"
        },
        {
          "name": "lockupDays",
          "type": "uint256",
          "internalType": "uint256"
        }
      ],
      "outputs": [
        {
          "name": "",
          "type": "uint16",
          "internalType": "uint16"
        }
      ],
      "stateMutability": "pure"
    },
    {
      "type": "function",
      "name": "cancelOffer",
      "inputs": [
        {
          "name": "offerId",
          "type": "uint256",
          "internalType": "uint256"
        }
      ],
      "outputs": [],
      "stateMutability": "nonpayable"
    },
    {
      "type": "function",
      "name": "claim",
      "inputs": [
        {
          "name": "offerId",
          "type": "uint256",
          "internalType": "uint256"
        }
      ],
      "outputs": [],
      "stateMutability": "nonpayable"
    },
    {
      "type": "function",
      "name": "cleanupExpiredOffers",
      "inputs": [
        {
          "name": "maxToClean",
          "type": "uint256",
          "internalType": "uint256"
        }
      ],
      "outputs": [],
      "stateMutability": "nonpayable"
    },
    {
      "type": "function",
      "name": "consignmentGasDeposit",
      "inputs": [
        {
          "name": "",
          "type": "uint256",
          "internalType": "uint256"
        }
      ],
      "outputs": [
        {
          "name": "",
          "type": "uint256",
          "internalType": "uint256"
        }
      ],
      "stateMutability": "view"
    },
    {
      "type": "function",
      "name": "consignments",
      "inputs": [
        {
          "name": "",
          "type": "uint256",
          "internalType": "uint256"
        }
      ],
      "outputs": [
        {
          "name": "tokenId",
          "type": "bytes32",
          "internalType": "bytes32"
        },
        {
          "name": "consigner",
          "type": "address",
          "internalType": "address"
        },
        {
          "name": "totalAmount",
          "type": "uint256",
          "internalType": "uint256"
        },
        {
          "name": "remainingAmount",
          "type": "uint256",
          "internalType": "uint256"
        },
        {
          "name": "isNegotiable",
          "type": "bool",
          "internalType": "bool"
        },
        {
          "name": "fixedDiscountBps",
          "type": "uint16",
          "internalType": "uint16"
        },
        {
          "name": "fixedLockupDays",
          "type": "uint32",
          "internalType": "uint32"
        },
        {
          "name": "minDiscountBps",
          "type": "uint16",
          "internalType": "uint16"
        },
        {
          "name": "maxDiscountBps",
          "type": "uint16",
          "internalType": "uint16"
        },
        {
          "name": "minLockupDays",
          "type": "uint32",
          "internalType": "uint32"
        },
        {
          "name": "maxLockupDays",
          "type": "uint32",
          "internalType": "uint32"
        },
        {
          "name": "minDealAmount",
          "type": "uint256",
          "internalType": "uint256"
        },
        {
          "name": "maxDealAmount",
          "type": "uint256",
          "internalType": "uint256"
        },
        {
          "name": "maxPriceVolatilityBps",
          "type": "uint16",
          "internalType": "uint16"
        },
        {
          "name": "isActive",
          "type": "bool",
          "internalType": "bool"
        },
        {
          "name": "createdAt",
          "type": "uint256",
          "internalType": "uint256"
        }
      ],
      "stateMutability": "view"
    },
    {
      "type": "function",
      "name": "createConsignment",
      "inputs": [
        {
          "name": "tokenId",
          "type": "bytes32",
          "internalType": "bytes32"
        },
        {
          "name": "amount",
          "type": "uint256",
          "internalType": "uint256"
        },
        {
          "name": "isNegotiable",
          "type": "bool",
          "internalType": "bool"
        },
        {
          "name": "fixedDiscountBps",
          "type": "uint16",
          "internalType": "uint16"
        },
        {
          "name": "fixedLockupDays",
          "type": "uint32",
          "internalType": "uint32"
        },
        {
          "name": "minDiscountBps",
          "type": "uint16",
          "internalType": "uint16"
        },
        {
          "name": "maxDiscountBps",
          "type": "uint16",
          "internalType": "uint16"
        },
        {
          "name": "minLockupDays",
          "type": "uint32",
          "internalType": "uint32"
        },
        {
          "name": "maxLockupDays",
          "type": "uint32",
          "internalType": "uint32"
        },
        {
          "name": "minDealAmount",
          "type": "uint256",
          "internalType": "uint256"
        },
        {
          "name": "maxDealAmount",
          "type": "uint256",
          "internalType": "uint256"
        },
        {
          "name": "maxPriceVolatilityBps",
          "type": "uint16",
          "internalType": "uint16"
        }
      ],
      "outputs": [
        {
          "name": "",
          "type": "uint256",
          "internalType": "uint256"
        }
      ],
      "stateMutability": "payable"
    },
    {
      "type": "function",
      "name": "createOfferFromConsignment",
      "inputs": [
        {
          "name": "consignmentId",
          "type": "uint256",
          "internalType": "uint256"
        },
        {
          "name": "tokenAmount",
          "type": "uint256",
          "internalType": "uint256"
        },
        {
          "name": "discountBps",
          "type": "uint256",
          "internalType": "uint256"
        },
        {
          "name": "currency",
          "type": "uint8",
          "internalType": "enum OTC.PaymentCurrency"
        },
        {
          "name": "lockupSeconds",
          "type": "uint256",
          "internalType": "uint256"
        },
        {
          "name": "agentCommissionBps",
          "type": "uint16",
          "internalType": "uint16"
        }
      ],
      "outputs": [
        {
          "name": "",
          "type": "uint256",
          "internalType": "uint256"
        }
      ],
      "stateMutability": "nonpayable"
    },
    {
      "type": "function",
      "name": "defaultUnlockDelaySeconds",
      "inputs": [],
      "outputs": [
        {
          "name": "",
          "type": "uint256",
          "internalType": "uint256"
        }
      ],
      "stateMutability": "view"
    },
    {
      "type": "function",
      "name": "emergencyRefund",
      "inputs": [
        {
          "name": "offerId",
          "type": "uint256",
          "internalType": "uint256"
        }
      ],
      "outputs": [],
      "stateMutability": "nonpayable"
    },
    {
      "type": "function",
      "name": "emergencyRefundDeadline",
      "inputs": [],
      "outputs": [
        {
          "name": "",
          "type": "uint256",
          "internalType": "uint256"
        }
      ],
      "stateMutability": "view"
    },
    {
      "type": "function",
      "name": "emergencyRefundsEnabled",
      "inputs": [],
      "outputs": [
        {
          "name": "",
          "type": "bool",
          "internalType": "bool"
        }
      ],
      "stateMutability": "view"
    },
    {
      "type": "function",
      "name": "ethUsdFeed",
      "inputs": [],
      "outputs": [
        {
          "name": "",
          "type": "address",
          "internalType": "contract IAggregatorV3"
        }
      ],
      "stateMutability": "view"
    },
    {
      "type": "function",
      "name": "fulfillOffer",
      "inputs": [
        {
          "name": "offerId",
          "type": "uint256",
          "internalType": "uint256"
        }
      ],
      "outputs": [],
      "stateMutability": "payable"
    },
    {
      "type": "function",
      "name": "getOffersForBeneficiary",
      "inputs": [
        {
          "name": "who",
          "type": "address",
          "internalType": "address"
        }
      ],
      "outputs": [
        {
          "name": "",
          "type": "uint256[]",
          "internalType": "uint256[]"
        }
      ],
      "stateMutability": "view"
    },
    {
      "type": "function",
      "name": "getOpenOfferIds",
      "inputs": [],
      "outputs": [
        {
          "name": "",
          "type": "uint256[]",
          "internalType": "uint256[]"
        }
      ],
      "stateMutability": "view"
    },
    {
      "type": "function",
      "name": "isApprover",
      "inputs": [
        {
          "name": "",
          "type": "address",
          "internalType": "address"
        }
      ],
      "outputs": [
        {
          "name": "",
          "type": "bool",
          "internalType": "bool"
        }
      ],
      "stateMutability": "view"
    },
    {
      "type": "function",
      "name": "maxFeedAgeSeconds",
      "inputs": [],
      "outputs": [
        {
          "name": "",
          "type": "uint256",
          "internalType": "uint256"
        }
      ],
      "stateMutability": "view"
    },
    {
      "type": "function",
      "name": "maxLockupSeconds",
      "inputs": [],
      "outputs": [
        {
          "name": "",
          "type": "uint256",
          "internalType": "uint256"
        }
      ],
      "stateMutability": "view"
    },
    {
      "type": "function",
      "name": "maxTokenPerOrder",
      "inputs": [],
      "outputs": [
        {
          "name": "",
          "type": "uint256",
          "internalType": "uint256"
        }
      ],
      "stateMutability": "view"
    },
    {
      "type": "function",
      "name": "minUsdAmount",
      "inputs": [],
      "outputs": [
        {
          "name": "",
          "type": "uint256",
          "internalType": "uint256"
        }
      ],
      "stateMutability": "view"
    },
    {
      "type": "function",
      "name": "nextConsignmentId",
      "inputs": [],
      "outputs": [
        {
          "name": "",
          "type": "uint256",
          "internalType": "uint256"
        }
      ],
      "stateMutability": "view"
    },
    {
      "type": "function",
      "name": "nextOfferId",
      "inputs": [],
      "outputs": [
        {
          "name": "",
          "type": "uint256",
          "internalType": "uint256"
        }
      ],
      "stateMutability": "view"
    },
    {
      "type": "function",
      "name": "offerApprovals",
      "inputs": [
        {
          "name": "",
          "type": "uint256",
          "internalType": "uint256"
        },
        {
          "name": "",
          "type": "address",
          "internalType": "address"
        }
      ],
      "outputs": [
        {
          "name": "",
          "type": "bool",
          "internalType": "bool"
        }
      ],
      "stateMutability": "view"
    },
    {
      "type": "function",
      "name": "offers",
      "inputs": [
        {
          "name": "",
          "type": "uint256",
          "internalType": "uint256"
        }
      ],
      "outputs": [
        {
          "name": "consignmentId",
          "type": "uint256",
          "internalType": "uint256"
        },
        {
          "name": "tokenId",
          "type": "bytes32",
          "internalType": "bytes32"
        },
        {
          "name": "beneficiary",
          "type": "address",
          "internalType": "address"
        },
        {
          "name": "tokenAmount",
          "type": "uint256",
          "internalType": "uint256"
        },
        {
          "name": "discountBps",
          "type": "uint256",
          "internalType": "uint256"
        },
        {
          "name": "createdAt",
          "type": "uint256",
          "internalType": "uint256"
        },
        {
          "name": "unlockTime",
          "type": "uint256",
          "internalType": "uint256"
        },
        {
          "name": "priceUsdPerToken",
          "type": "uint256",
          "internalType": "uint256"
        },
        {
          "name": "maxPriceDeviation",
          "type": "uint256",
          "internalType": "uint256"
        },
        {
          "name": "ethUsdPrice",
          "type": "uint256",
          "internalType": "uint256"
        },
        {
          "name": "currency",
          "type": "uint8",
          "internalType": "enum OTC.PaymentCurrency"
        },
        {
          "name": "approved",
          "type": "bool",
          "internalType": "bool"
        },
        {
          "name": "paid",
          "type": "bool",
          "internalType": "bool"
        },
        {
          "name": "fulfilled",
          "type": "bool",
          "internalType": "bool"
        },
        {
          "name": "cancelled",
          "type": "bool",
          "internalType": "bool"
        },
        {
          "name": "payer",
          "type": "address",
          "internalType": "address"
        },
        {
          "name": "amountPaid",
          "type": "uint256",
          "internalType": "uint256"
        },
        {
          "name": "agentCommissionBps",
          "type": "uint16",
          "internalType": "uint16"
        }
      ],
      "stateMutability": "view"
    },
    {
      "type": "function",
      "name": "openOfferIds",
      "inputs": [
        {
          "name": "",
          "type": "uint256",
          "internalType": "uint256"
        }
      ],
      "outputs": [
        {
          "name": "",
          "type": "uint256",
          "internalType": "uint256"
        }
      ],
      "stateMutability": "view"
    },
    {
      "type": "function",
      "name": "owner",
      "inputs": [],
      "outputs": [
        {
          "name": "",
          "type": "address",
          "internalType": "address"
        }
      ],
      "stateMutability": "view"
    },
    {
      "type": "function",
      "name": "p2pCommissionBps",
      "inputs": [],
      "outputs": [
        {
          "name": "",
          "type": "uint16",
          "internalType": "uint16"
        }
      ],
      "stateMutability": "view"
    },
    {
      "type": "function",
      "name": "pause",
      "inputs": [],
      "outputs": [],
      "stateMutability": "nonpayable"
    },
    {
      "type": "function",
      "name": "paused",
      "inputs": [],
      "outputs": [
        {
          "name": "",
          "type": "bool",
          "internalType": "bool"
        }
      ],
      "stateMutability": "view"
    },
    {
      "type": "function",
      "name": "pendingOwner",
      "inputs": [],
      "outputs": [
        {
          "name": "",
          "type": "address",
          "internalType": "address"
        }
      ],
      "stateMutability": "view"
    },
    {
      "type": "function",
      "name": "quoteExpirySeconds",
      "inputs": [],
      "outputs": [
        {
          "name": "",
          "type": "uint256",
          "internalType": "uint256"
        }
      ],
      "stateMutability": "view"
    },
    {
      "type": "function",
      "name": "registerToken",
      "inputs": [
        {
          "name": "tokenId",
          "type": "bytes32",
          "internalType": "bytes32"
        },
        {
          "name": "tokenAddress",
          "type": "address",
          "internalType": "address"
        },
        {
          "name": "priceOracle",
          "type": "address",
          "internalType": "address"
        }
      ],
      "outputs": [],
      "stateMutability": "nonpayable"
    },
    {
      "type": "function",
      "name": "renounceOwnership",
      "inputs": [],
      "outputs": [],
      "stateMutability": "nonpayable"
    },
    {
      "type": "function",
      "name": "requireApproverToFulfill",
      "inputs": [],
      "outputs": [
        {
          "name": "",
          "type": "bool",
          "internalType": "bool"
        }
      ],
      "stateMutability": "view"
    },
    {
      "type": "function",
      "name": "requiredApprovals",
      "inputs": [],
      "outputs": [
        {
          "name": "",
          "type": "uint256",
          "internalType": "uint256"
        }
      ],
      "stateMutability": "view"
    },
    {
      "type": "function",
      "name": "requiredEthWei",
      "inputs": [
        {
          "name": "offerId",
          "type": "uint256",
          "internalType": "uint256"
        }
      ],
      "outputs": [
        {
          "name": "",
          "type": "uint256",
          "internalType": "uint256"
        }
      ],
      "stateMutability": "view"
    },
    {
      "type": "function",
      "name": "requiredGasDepositPerConsignment",
      "inputs": [],
      "outputs": [
        {
          "name": "",
          "type": "uint256",
          "internalType": "uint256"
        }
      ],
      "stateMutability": "view"
    },
    {
      "type": "function",
      "name": "requiredUsdcAmount",
      "inputs": [
        {
          "name": "offerId",
          "type": "uint256",
          "internalType": "uint256"
        }
      ],
      "outputs": [
        {
          "name": "",
          "type": "uint256",
          "internalType": "uint256"
        }
      ],
      "stateMutability": "view"
    },
    {
      "type": "function",
      "name": "restrictFulfillToBeneficiaryOrApprover",
      "inputs": [],
      "outputs": [
        {
          "name": "",
          "type": "bool",
          "internalType": "bool"
        }
      ],
      "stateMutability": "view"
    },
    {
      "type": "function",
      "name": "setAgent",
      "inputs": [
        {
          "name": "newAgent",
          "type": "address",
          "internalType": "address"
        }
      ],
      "outputs": [],
      "stateMutability": "nonpayable"
    },
    {
      "type": "function",
      "name": "setApprover",
      "inputs": [
        {
          "name": "a",
          "type": "address",
          "internalType": "address"
        },
        {
          "name": "allowed",
          "type": "bool",
          "internalType": "bool"
        }
      ],
      "outputs": [],
      "stateMutability": "nonpayable"
    },
    {
      "type": "function",
      "name": "setAuthorizedRegistrar",
      "inputs": [
        {
          "name": "registrar",
          "type": "address",
          "internalType": "address"
        },
        {
          "name": "allowed",
          "type": "bool",
          "internalType": "bool"
        }
      ],
      "outputs": [],
      "stateMutability": "nonpayable"
    },
    {
      "type": "function",
      "name": "setEmergencyRefund",
      "inputs": [
        {
          "name": "enabled",
          "type": "bool",
          "internalType": "bool"
        }
      ],
      "outputs": [],
      "stateMutability": "nonpayable"
    },
    {
      "type": "function",
      "name": "setEmergencyRefundDeadline",
      "inputs": [
        {
          "name": "days_",
          "type": "uint256",
          "internalType": "uint256"
        }
      ],
      "outputs": [],
      "stateMutability": "nonpayable"
    },
    {
      "type": "function",
      "name": "setEthFeed",
      "inputs": [
        {
          "name": "ethUsd",
          "type": "address",
          "internalType": "contract IAggregatorV3"
        }
      ],
      "outputs": [],
      "stateMutability": "nonpayable"
    },
    {
      "type": "function",
      "name": "setLimits",
      "inputs": [
        {
          "name": "minUsd",
          "type": "uint256",
          "internalType": "uint256"
        },
        {
          "name": "maxToken",
          "type": "uint256",
          "internalType": "uint256"
        },
        {
          "name": "expirySecs",
          "type": "uint256",
          "internalType": "uint256"
        },
        {
          "name": "unlockDelaySecs",
          "type": "uint256",
          "internalType": "uint256"
        }
      ],
      "outputs": [],
      "stateMutability": "nonpayable"
    },
    {
      "type": "function",
      "name": "setMaxFeedAge",
      "inputs": [
        {
          "name": "secs",
          "type": "uint256",
          "internalType": "uint256"
        }
      ],
      "outputs": [],
      "stateMutability": "nonpayable"
    },
    {
      "type": "function",
      "name": "setMaxLockup",
      "inputs": [
        {
          "name": "maxSecs",
          "type": "uint256",
          "internalType": "uint256"
        }
      ],
      "outputs": [],
      "stateMutability": "nonpayable"
    },
    {
      "type": "function",
      "name": "setP2PCommission",
      "inputs": [
        {
          "name": "bps",
          "type": "uint16",
          "internalType": "uint16"
        }
      ],
      "outputs": [],
      "stateMutability": "nonpayable"
    },
    {
      "type": "function",
      "name": "setRequireApproverToFulfill",
      "inputs": [
        {
          "name": "enabled",
          "type": "bool",
          "internalType": "bool"
        }
      ],
      "outputs": [],
      "stateMutability": "nonpayable"
    },
    {
      "type": "function",
      "name": "setRequiredApprovals",
      "inputs": [
        {
          "name": "required",
          "type": "uint256",
          "internalType": "uint256"
        }
      ],
      "outputs": [],
      "stateMutability": "nonpayable"
    },
    {
      "type": "function",
      "name": "setRequiredGasDeposit",
      "inputs": [
        {
          "name": "amount",
          "type": "uint256",
          "internalType": "uint256"
        }
      ],
      "outputs": [],
      "stateMutability": "nonpayable"
    },
    {
      "type": "function",
      "name": "setRestrictFulfill",
      "inputs": [
        {
          "name": "enabled",
          "type": "bool",
          "internalType": "bool"
        }
      ],
      "outputs": [],
      "stateMutability": "nonpayable"
    },
    {
      "type": "function",
      "name": "tokenDeposited",
      "inputs": [
        {
          "name": "",
          "type": "bytes32",
          "internalType": "bytes32"
        }
      ],
      "outputs": [
        {
          "name": "",
          "type": "uint256",
          "internalType": "uint256"
        }
      ],
      "stateMutability": "view"
    },
    {
      "type": "function",
      "name": "tokenList",
      "inputs": [
        {
          "name": "",
          "type": "uint256",
          "internalType": "uint256"
        }
      ],
      "outputs": [
        {
          "name": "",
          "type": "bytes32",
          "internalType": "bytes32"
        }
      ],
      "stateMutability": "view"
    },
    {
      "type": "function",
      "name": "tokenReserved",
      "inputs": [
        {
          "name": "",
          "type": "bytes32",
          "internalType": "bytes32"
        }
      ],
      "outputs": [
        {
          "name": "",
          "type": "uint256",
          "internalType": "uint256"
        }
      ],
      "stateMutability": "view"
    },
    {
      "type": "function",
      "name": "tokens",
      "inputs": [
        {
          "name": "",
          "type": "bytes32",
          "internalType": "bytes32"
        }
      ],
      "outputs": [
        {
          "name": "tokenAddress",
          "type": "address",
          "internalType": "address"
        },
        {
          "name": "decimals",
          "type": "uint8",
          "internalType": "uint8"
        },
        {
          "name": "isActive",
          "type": "bool",
          "internalType": "bool"
        },
        {
          "name": "priceOracle",
          "type": "address",
          "internalType": "address"
        }
      ],
      "stateMutability": "view"
    },
    {
      "type": "function",
      "name": "totalUsdForOffer",
      "inputs": [
        {
          "name": "offerId",
          "type": "uint256",
          "internalType": "uint256"
        }
      ],
      "outputs": [
        {
          "name": "",
          "type": "uint256",
          "internalType": "uint256"
        }
      ],
      "stateMutability": "view"
    },
    {
      "type": "function",
      "name": "transferOwnership",
      "inputs": [
        {
          "name": "newOwner",
          "type": "address",
          "internalType": "address"
        }
      ],
      "outputs": [],
      "stateMutability": "nonpayable"
    },
    {
      "type": "function",
      "name": "unpause",
      "inputs": [],
      "outputs": [],
      "stateMutability": "nonpayable"
    },
    {
      "type": "function",
      "name": "usdc",
      "inputs": [],
      "outputs": [
        {
          "name": "",
          "type": "address",
          "internalType": "contract IERC20"
        }
      ],
      "stateMutability": "view"
    },
    {
      "type": "function",
      "name": "usdcDecimals",
      "inputs": [],
      "outputs": [
        {
          "name": "",
          "type": "uint8",
          "internalType": "uint8"
        }
      ],
      "stateMutability": "view"
    },
    {
      "type": "function",
      "name": "withdrawConsignment",
      "inputs": [
        {
          "name": "consignmentId",
          "type": "uint256",
          "internalType": "uint256"
        }
      ],
      "outputs": [],
      "stateMutability": "nonpayable"
    },
    {
      "type": "function",
      "name": "withdrawGasDeposits",
      "inputs": [
        {
          "name": "consignmentIds",
          "type": "uint256[]",
          "internalType": "uint256[]"
        }
      ],
      "outputs": [],
      "stateMutability": "nonpayable"
    },
    {
      "type": "function",
      "name": "withdrawStable",
      "inputs": [
        {
          "name": "to",
          "type": "address",
          "internalType": "address"
        },
        {
          "name": "usdcAmount",
          "type": "uint256",
          "internalType": "uint256"
        },
        {
          "name": "ethAmount",
          "type": "uint256",
          "internalType": "uint256"
        }
      ],
      "outputs": [],
      "stateMutability": "nonpayable"
    },
    {
      "type": "event",
      "name": "AgentCommissionPaid",
      "inputs": [
        {
          "name": "offerId",
          "type": "uint256",
          "indexed": true,
          "internalType": "uint256"
        },
        {
          "name": "agent",
          "type": "address",
          "indexed": true,
          "internalType": "address"
        },
        {
          "name": "amount",
          "type": "uint256",
          "indexed": false,
          "internalType": "uint256"
        },
        {
          "name": "currency",
          "type": "uint8",
          "indexed": false,
          "internalType": "enum OTC.PaymentCurrency"
        }
      ],
      "anonymous": false
    },
    {
      "type": "event",
      "name": "AgentUpdated",
      "inputs": [
        {
          "name": "previous",
          "type": "address",
          "indexed": true,
          "internalType": "address"
        },
        {
          "name": "newAgent",
          "type": "address",
          "indexed": true,
          "internalType": "address"
        }
      ],
      "anonymous": false
    },
    {
      "type": "event",
      "name": "ApproverUpdated",
      "inputs": [
        {
          "name": "approver",
          "type": "address",
          "indexed": true,
          "internalType": "address"
        },
        {
          "name": "allowed",
          "type": "bool",
          "indexed": false,
          "internalType": "bool"
        }
      ],
      "anonymous": false
    },
    {
      "type": "event",
      "name": "AuthorizedRegistrarUpdated",
      "inputs": [
        {
          "name": "registrar",
          "type": "address",
          "indexed": true,
          "internalType": "address"
        },
        {
          "name": "allowed",
          "type": "bool",
          "indexed": false,
          "internalType": "bool"
        }
      ],
      "anonymous": false
    },
    {
      "type": "event",
      "name": "ConsignmentCreated",
      "inputs": [
        {
          "name": "consignmentId",
          "type": "uint256",
          "indexed": true,
          "internalType": "uint256"
        },
        {
          "name": "tokenId",
          "type": "bytes32",
          "indexed": true,
          "internalType": "bytes32"
        },
        {
          "name": "consigner",
          "type": "address",
          "indexed": true,
          "internalType": "address"
        },
        {
          "name": "amount",
          "type": "uint256",
          "indexed": false,
          "internalType": "uint256"
        }
      ],
      "anonymous": false
    },
    {
      "type": "event",
      "name": "ConsignmentUpdated",
      "inputs": [
        {
          "name": "consignmentId",
          "type": "uint256",
          "indexed": true,
          "internalType": "uint256"
        }
      ],
      "anonymous": false
    },
    {
      "type": "event",
      "name": "ConsignmentWithdrawn",
      "inputs": [
        {
          "name": "consignmentId",
          "type": "uint256",
          "indexed": true,
          "internalType": "uint256"
        },
        {
          "name": "amount",
          "type": "uint256",
          "indexed": false,
          "internalType": "uint256"
        }
      ],
      "anonymous": false
    },
    {
      "type": "event",
      "name": "EmergencyRefund",
      "inputs": [
        {
          "name": "offerId",
          "type": "uint256",
          "indexed": true,
          "internalType": "uint256"
        },
        {
          "name": "recipient",
          "type": "address",
          "indexed": true,
          "internalType": "address"
        },
        {
          "name": "amount",
          "type": "uint256",
          "indexed": false,
          "internalType": "uint256"
        },
        {
          "name": "currency",
          "type": "uint8",
          "indexed": false,
          "internalType": "enum OTC.PaymentCurrency"
        }
      ],
      "anonymous": false
    },
    {
      "type": "event",
      "name": "EmergencyRefundEnabled",
      "inputs": [
        {
          "name": "enabled",
          "type": "bool",
          "indexed": false,
          "internalType": "bool"
        }
      ],
      "anonymous": false
    },
    {
      "type": "event",
      "name": "FeedsUpdated",
      "inputs": [
        {
          "name": "tokenUsdFeed",
          "type": "address",
          "indexed": true,
          "internalType": "address"
        },
        {
          "name": "ethUsdFeed",
          "type": "address",
          "indexed": true,
          "internalType": "address"
        }
      ],
      "anonymous": false
    },
    {
      "type": "event",
      "name": "GasDepositMade",
      "inputs": [
        {
          "name": "consignmentId",
          "type": "uint256",
          "indexed": true,
          "internalType": "uint256"
        },
        {
          "name": "amount",
          "type": "uint256",
          "indexed": false,
          "internalType": "uint256"
        }
      ],
      "anonymous": false
    },
    {
      "type": "event",
      "name": "GasDepositRefunded",
      "inputs": [
        {
          "name": "consignmentId",
          "type": "uint256",
          "indexed": true,
          "internalType": "uint256"
        },
        {
          "name": "consigner",
          "type": "address",
          "indexed": true,
          "internalType": "address"
        },
        {
          "name": "amount",
          "type": "uint256",
          "indexed": false,
          "internalType": "uint256"
        }
      ],
      "anonymous": false
    },
    {
      "type": "event",
      "name": "GasDepositWithdrawn",
      "inputs": [
        {
          "name": "agent",
          "type": "address",
          "indexed": true,
          "internalType": "address"
        },
        {
          "name": "amount",
          "type": "uint256",
          "indexed": false,
          "internalType": "uint256"
        }
      ],
      "anonymous": false
    },
    {
      "type": "event",
      "name": "LimitsUpdated",
      "inputs": [
        {
          "name": "minUsdAmount",
          "type": "uint256",
          "indexed": false,
          "internalType": "uint256"
        },
        {
          "name": "maxTokenPerOrder",
          "type": "uint256",
          "indexed": false,
          "internalType": "uint256"
        },
        {
          "name": "quoteExpirySeconds",
          "type": "uint256",
          "indexed": false,
          "internalType": "uint256"
        },
        {
          "name": "defaultUnlockDelaySeconds",
          "type": "uint256",
          "indexed": false,
          "internalType": "uint256"
        }
      ],
      "anonymous": false
    },
    {
      "type": "event",
      "name": "MaxFeedAgeUpdated",
      "inputs": [
        {
          "name": "maxFeedAgeSeconds",
          "type": "uint256",
          "indexed": false,
          "internalType": "uint256"
        }
      ],
      "anonymous": false
    },
    {
      "type": "event",
      "name": "OfferApproved",
      "inputs": [
        {
          "name": "id",
          "type": "uint256",
          "indexed": true,
          "internalType": "uint256"
        },
        {
          "name": "by",
          "type": "address",
          "indexed": true,
          "internalType": "address"
        }
      ],
      "anonymous": false
    },
    {
      "type": "event",
      "name": "OfferCancelled",
      "inputs": [
        {
          "name": "id",
          "type": "uint256",
          "indexed": true,
          "internalType": "uint256"
        },
        {
          "name": "by",
          "type": "address",
          "indexed": true,
          "internalType": "address"
        }
      ],
      "anonymous": false
    },
    {
      "type": "event",
      "name": "OfferCreated",
      "inputs": [
        {
          "name": "id",
          "type": "uint256",
          "indexed": true,
          "internalType": "uint256"
        },
        {
          "name": "beneficiary",
          "type": "address",
          "indexed": true,
          "internalType": "address"
        },
        {
          "name": "tokenAmount",
          "type": "uint256",
          "indexed": false,
          "internalType": "uint256"
        },
        {
          "name": "discountBps",
          "type": "uint256",
          "indexed": false,
          "internalType": "uint256"
        },
        {
          "name": "currency",
          "type": "uint8",
          "indexed": false,
          "internalType": "enum OTC.PaymentCurrency"
        },
        {
          "name": "agentCommissionBps",
          "type": "uint16",
          "indexed": false,
          "internalType": "uint16"
        }
      ],
      "anonymous": false
    },
    {
      "type": "event",
      "name": "OfferPaid",
      "inputs": [
        {
          "name": "id",
          "type": "uint256",
          "indexed": true,
          "internalType": "uint256"
        },
        {
          "name": "payer",
          "type": "address",
          "indexed": true,
          "internalType": "address"
        },
        {
          "name": "amountPaid",
          "type": "uint256",
          "indexed": false,
          "internalType": "uint256"
        }
      ],
      "anonymous": false
    },
    {
      "type": "event",
      "name": "OwnershipTransferStarted",
      "inputs": [
        {
          "name": "previousOwner",
          "type": "address",
          "indexed": true,
          "internalType": "address"
        },
        {
          "name": "newOwner",
          "type": "address",
          "indexed": true,
          "internalType": "address"
        }
      ],
      "anonymous": false
    },
    {
      "type": "event",
      "name": "OwnershipTransferred",
      "inputs": [
        {
          "name": "previousOwner",
          "type": "address",
          "indexed": true,
          "internalType": "address"
        },
        {
          "name": "newOwner",
          "type": "address",
          "indexed": true,
          "internalType": "address"
        }
      ],
      "anonymous": false
    },
    {
      "type": "event",
      "name": "Paused",
      "inputs": [
        {
          "name": "account",
          "type": "address",
          "indexed": false,
          "internalType": "address"
        }
      ],
      "anonymous": false
    },
    {
      "type": "event",
      "name": "RefundAttemptFailed",
      "inputs": [
        {
          "name": "payer",
          "type": "address",
          "indexed": true,
          "internalType": "address"
        },
        {
          "name": "amount",
          "type": "uint256",
          "indexed": false,
          "internalType": "uint256"
        }
      ],
      "anonymous": false
    },
    {
      "type": "event",
      "name": "RequireApproverFulfillUpdated",
      "inputs": [
        {
          "name": "enabled",
          "type": "bool",
          "indexed": false,
          "internalType": "bool"
        }
      ],
      "anonymous": false
    },
    {
      "type": "event",
      "name": "RequiredGasDepositUpdated",
      "inputs": [
        {
          "name": "newAmount",
          "type": "uint256",
          "indexed": false,
          "internalType": "uint256"
        }
      ],
      "anonymous": false
    },
    {
      "type": "event",
      "name": "RestrictFulfillUpdated",
      "inputs": [
        {
          "name": "enabled",
          "type": "bool",
          "indexed": false,
          "internalType": "bool"
        }
      ],
      "anonymous": false
    },
    {
      "type": "event",
      "name": "StableWithdrawn",
      "inputs": [
        {
          "name": "to",
          "type": "address",
          "indexed": true,
          "internalType": "address"
        },
        {
          "name": "usdcAmount",
          "type": "uint256",
          "indexed": false,
          "internalType": "uint256"
        },
        {
          "name": "ethAmount",
          "type": "uint256",
          "indexed": false,
          "internalType": "uint256"
        }
      ],
      "anonymous": false
    },
    {
      "type": "event",
      "name": "StorageCleaned",
      "inputs": [
        {
          "name": "offersRemoved",
          "type": "uint256",
          "indexed": false,
          "internalType": "uint256"
        }
      ],
      "anonymous": false
    },
    {
      "type": "event",
      "name": "TokenRegistered",
      "inputs": [
        {
          "name": "tokenId",
          "type": "bytes32",
          "indexed": true,
          "internalType": "bytes32"
        },
        {
          "name": "tokenAddress",
          "type": "address",
          "indexed": true,
          "internalType": "address"
        },
        {
          "name": "priceOracle",
          "type": "address",
          "indexed": true,
          "internalType": "address"
        }
      ],
      "anonymous": false
    },
    {
      "type": "event",
      "name": "TokensClaimed",
      "inputs": [
        {
          "name": "id",
          "type": "uint256",
          "indexed": true,
          "internalType": "uint256"
        },
        {
          "name": "beneficiary",
          "type": "address",
          "indexed": true,
          "internalType": "address"
        },
        {
          "name": "amount",
          "type": "uint256",
          "indexed": false,
          "internalType": "uint256"
        }
      ],
      "anonymous": false
    },
    {
      "type": "event",
      "name": "Unpaused",
      "inputs": [
        {
          "name": "account",
          "type": "address",
          "indexed": false,
          "internalType": "address"
        }
      ],
      "anonymous": false
    },
    {
      "type": "error",
      "name": "AddressEmptyCode",
      "inputs": [
        {
          "name": "target",
          "type": "address",
          "internalType": "address"
        }
      ]
    },
    {
      "type": "error",
      "name": "AddressInsufficientBalance",
      "inputs": [
        {
          "name": "account",
          "type": "address",
          "internalType": "address"
        }
      ]
    },
    {
      "type": "error",
      "name": "AlreadyApproved",
      "inputs": []
    },
    {
      "type": "error",
      "name": "AlreadyApprovedByYou",
      "inputs": []
    },
    {
      "type": "error",
      "name": "AlreadyPaid",
      "inputs": []
    },
    {
      "type": "error",
      "name": "AmountOutOfRange",
      "inputs": []
    },
    {
      "type": "error",
      "name": "BadPrice",
      "inputs": []
    },
    {
      "type": "error",
      "name": "BadState",
      "inputs": []
    },
    {
      "type": "error",
      "name": "BatchTooLarge",
      "inputs": []
    },
    {
      "type": "error",
      "name": "CommissionOutOfRange",
      "inputs": []
    },
    {
      "type": "error",
      "name": "ConsignmentNotActive",
      "inputs": []
    },
    {
      "type": "error",
      "name": "DiscountOutOfRange",
      "inputs": []
    },
    {
      "type": "error",
      "name": "EmergencyRefundsDisabled",
      "inputs": []
    },
    {
      "type": "error",
      "name": "EnforcedPause",
      "inputs": []
    },
    {
      "type": "error",
      "name": "EthRefundFailed",
      "inputs": []
    },
    {
      "type": "error",
      "name": "EthTransferFailed",
      "inputs": []
    },
    {
      "type": "error",
      "name": "ExpectedPause",
      "inputs": []
    },
    {
      "type": "error",
      "name": "FailedInnerCall",
      "inputs": []
    },
    {
      "type": "error",
      "name": "GasDepositTooHigh",
      "inputs": []
    },
    {
      "type": "error",
      "name": "GasRefundFailed",
      "inputs": []
    },
    {
      "type": "error",
      "name": "InsufficientDepositedBalance",
      "inputs": []
    },
    {
      "type": "error",
      "name": "InsufficientGasDeposit",
      "inputs": []
    },
    {
      "type": "error",
      "name": "InsufficientRemaining",
      "inputs": []
    },
    {
      "type": "error",
      "name": "InvalidDealAmounts",
      "inputs": []
    },
    {
      "type": "error",
      "name": "InvalidDecimals",
      "inputs": []
    },
    {
      "type": "error",
      "name": "InvalidDiscountRange",
      "inputs": []
    },
    {
      "type": "error",
      "name": "InvalidEthFeedDecimals",
      "inputs": []
    },
    {
      "type": "error",
      "name": "InvalidLockupRange",
      "inputs": []
    },
    {
      "type": "error",
      "name": "InvalidMax",
      "inputs": []
    },
    {
      "type": "error",
      "name": "InvalidRequiredApprovals",
      "inputs": []
    },
    {
      "type": "error",
      "name": "InvalidStateForRefund",
      "inputs": []
    },
    {
      "type": "error",
      "name": "InvalidToken",
      "inputs": []
    },
    {
      "type": "error",
      "name": "InvalidUsdcDecimals",
      "inputs": []
    },
    {
      "type": "error",
      "name": "Locked",
      "inputs": []
    },
    {
      "type": "error",
      "name": "LockupOutOfRange",
      "inputs": []
    },
    {
      "type": "error",
      "name": "LockupTooLong",
      "inputs": []
    },
    {
      "type": "error",
      "name": "MathOverflowedMulDiv",
      "inputs": []
    },
    {
      "type": "error",
      "name": "MinUsdNotMet",
      "inputs": []
    },
    {
      "type": "error",
      "name": "MustUseFixedDiscount",
      "inputs": []
    },
    {
      "type": "error",
      "name": "MustUseFixedLockup",
      "inputs": []
    },
    {
      "type": "error",
      "name": "MustWait180Days",
      "inputs": []
    },
    {
      "type": "error",
      "name": "NoAuth",
      "inputs": []
    },
    {
      "type": "error",
      "name": "NoGasDepositsToWithdraw",
      "inputs": []
    },
    {
      "type": "error",
      "name": "NoOffer",
      "inputs": []
    },
    {
      "type": "error",
      "name": "NonNegotiableP2P",
      "inputs": []
    },
    {
      "type": "error",
      "name": "NotActive",
      "inputs": []
    },
    {
      "type": "error",
      "name": "NotApprover",
      "inputs": []
    },
    {
      "type": "error",
      "name": "NotAuthorized",
      "inputs": []
    },
    {
      "type": "error",
      "name": "NotAuthorizedForRefund",
      "inputs": []
    },
    {
      "type": "error",
      "name": "NotBeneficiary",
      "inputs": []
    },
    {
      "type": "error",
      "name": "NotConsigner",
      "inputs": []
    },
    {
      "type": "error",
      "name": "NotEth",
      "inputs": []
    },
    {
      "type": "error",
      "name": "NotExpired",
      "inputs": []
    },
    {
      "type": "error",
      "name": "NotUsdc",
      "inputs": []
    },
    {
      "type": "error",
      "name": "NothingToWithdraw",
      "inputs": []
    },
    {
      "type": "error",
      "name": "OwnableInvalidOwner",
      "inputs": [
        {
          "name": "owner",
          "type": "address",
          "internalType": "address"
        }
      ]
    },
    {
      "type": "error",
      "name": "OwnableUnauthorizedAccount",
      "inputs": [
        {
          "name": "account",
          "type": "address",
          "internalType": "address"
        }
      ]
    },
    {
      "type": "error",
      "name": "PriceVolatilityExceeded",
      "inputs": []
    },
    {
      "type": "error",
      "name": "ReentrancyGuardReentrantCall",
      "inputs": []
    },
    {
      "type": "error",
      "name": "RefundFailed",
      "inputs": []
    },
    {
      "type": "error",
      "name": "SafeERC20FailedOperation",
      "inputs": [
        {
          "name": "token",
          "type": "address",
          "internalType": "address"
        }
      ]
    },
    {
      "type": "error",
      "name": "StalePrice",
      "inputs": []
    },
    {
      "type": "error",
      "name": "StaleRound",
      "inputs": []
    },
    {
      "type": "error",
      "name": "TokenExists",
      "inputs": []
    },
    {
      "type": "error",
      "name": "TokenNotActive",
      "inputs": []
    },
    {
      "type": "error",
      "name": "TokenNotRegistered",
      "inputs": []
    },
    {
      "type": "error",
      "name": "TooEarlyForEmergencyRefund",
      "inputs": []
    },
    {
      "type": "error",
      "name": "WithdrawalFailed",
      "inputs": []
    },
    {
      "type": "error",
      "name": "ZeroAddress",
      "inputs": []
    },
    {
      "type": "error",
      "name": "ZeroAgent",
      "inputs": []
    },
    {
      "type": "error",
      "name": "ZeroAmount",
      "inputs": []
    },
    {
      "type": "error",
      "name": "ZeroAmountReceived",
      "inputs": []
    }
  ],
  "bytecode": {
    "object": "0x60c080604052608081614c19803803809161001a82856102d5565b8339810103126102d15761002d8161030c565b6020820151916001600160a01b0383168084036102d15760408201516001600160a01b03811692908390036102d1576060610068910161030c565b6001600160a01b039093169283156102be576001545f80546001600160a01b031981168717825560405196916001600160a01b03909116907f8be0079c531659141344cd1fd0a4f28419497f9722a3daafe3b4186f6b6457e09080a360018060a81b03191660015560016002556001600655631dcd650060085569021e19e0c9bab2400000600955610708600a55610e10600c556301e13380600d55601961ffff19600e541617600e5566038d7ea4c680006012556001601655600160195562278d00601e5581156102af576001600160a01b03169384156102a057600484602093819360805263313ce56760e01b82525afa918215610259575f9261027f575b5060ff821660068114159081610273575b506102645760049260209260a0528160018060a01b0319600754161760075560018060a01b031960135416176013556040519283809263313ce56760e01b82525afa9081156102595760089160ff915f9161022a575b50160361021b576040516148df908161033a823960805181818161055801528181610d5c015281816123f50152612f3e015260a051818181610cd20152818161205101526138580152f35b639d696d3960e01b5f5260045ffd5b61024c915060203d602011610252575b61024481836102d5565b810190610320565b5f6101d0565b503d61023a565b6040513d5f823e3d90fd5b632c93088f60e01b5f5260045ffd5b6012915014155f61017a565b61029991925060203d6020116102525761024481836102d5565b905f610169565b6392077bad60e01b5f5260045ffd5b63d92e233d60e01b5f5260045ffd5b631e4fbdf760e01b5f525f60045260245ffd5b5f80fd5b601f909101601f19168101906001600160401b038211908210176102f857604052565b634e487b7160e01b5f52604160045260245ffd5b51906001600160a01b03821682036102d157565b908160209103126102d1575160ff811681036102d1579056fe6080604052600436101561001a575b3615610018575f80fd5b005b5f3560e01c8063062075cc14613e375780630d2d94bd1461388b5780631003c6f2146137fa57806311d69ceb1461377c578063121284dc14613714578063147cd36c146136f65780631ac6d8ba146136d95780632014b71c146133d757806320af332914613387578063222a242e14613340578063265321631461316e578063379607f514612fde578063394cf10e14612fb95780633b2fb8c514612f6d5780633e413bee14612f295780633f4ba83a14612ebb57806340569d2a14612e9e57806340ad01ea14612e7457806340f5e1b8146129215780634175a56e1461290657806341ae69e21461289b578063433fe9971461287d57806348186b0b146128605780634c707d921461283f5780635415b754146127f657806358e3a77e146127d95780635c975abb146127b45780635ef5f029146127975780635f5d06551461277a5780636b2636ab146125585780636d218e481461251b57806370e5deb914612250578063715018a6146121ed5780637244fe04146120fa57806379ba5097146120755780637bf42165146120385780637c941a2314611fd25780638009b7bd14611faa5780638456cb5914611f4957806388b3729e14611d3a5780638a72ea6a14611c255780638ba84da114611c005780638da5cb5b14611bd95780638f2a849214611bb7578063904194a314611b5957806397a2fbd414611b2c57806399c1aadc14611b0f5780639a3992d1146119915780639ead722214611959578063a075b7c7146118cf578063a0ab9067146116aa578063a18d2edc14611689578063a1cd501814611540578063a5d7c10a146112cf578063a600afa8146112a5578063bcf685ed14611224578063bf3422f2146111e7578063c298b1ad14611106578063c55f69d9146110dc578063c719a5361461107e578063c78545d914610954578063ce8e483014610937578063d22dbcf1146108eb578063d6a4f5e8146108c1578063d76fd2e71461084a578063dadc1aea146107a4578063e30c39781461077c578063e343d9b41461075f578063ef706adf14610592578063f0ee4a48146104a8578063f1f3d7861461048b578063f2fde38b1461041e578063f52a70f214610401578063f5ff5c76146103d95763fdfcadeb0361000e57346103d55760403660031901126103d557610370613eb2565b7f0954a50614696963b23494e8dc435fbc1fceea9755d3c777e815fa28b52bf2ff602061039b613f26565b926103a4614532565b6001600160a01b03165f8181526015835260409020805460ff191660ff86151516179055925b6040519015158152a2005b5f80fd5b346103d5575f3660031901126103d5576013546040516001600160a01b039091168152602090f35b346103d5575f3660031901126103d5576020600b54604051908152f35b346103d55760203660031901126103d557610437613eb2565b61043f614532565b60018060a01b0316806001600160601b0360a01b600154161760015560018060a01b035f54167f38d16b8cac22d99fc7c124b9cd0de2d3fa1faef420bfe791d8c362d765e227005f80a3005b346103d5575f3660031901126103d5576020600c54604051908152f35b346103d55760603660031901126103d5576104c1613eb2565b6024356044356104cf614532565b6104d7614322565b6001600160a01b038316928315610583578280610552575b50508061052e575b7facfca0845eda0bcbd22737cb8526cda0fb6e3deeac93ede1ecb1fabec14843fc9160409182519182526020820152a26001600255005b5f80808084875af161053e61413c565b506104f757630db2c7f160e31b5f5260045ffd5b61057c917f0000000000000000000000000000000000000000000000000000000000000000614545565b83826104ef565b63d92e233d60e01b5f5260045ffd5b346103d55760203660031901126103d5576004356105ae614322565b6105b6614340565b5f818152601a6020526040902060028101546001600160a01b0316801561075057600a82019081549060ff8260101c168015610743575b610734573314801580610720575b8061070b575b806106f4575b6106e5576106be575b6401000000009064ff0000000019161790556003810190815460018201545f52601060205261064460405f20918254614003565b905554908161067b575b33837f1f51377b3e685a0e2419f9bb4ba7c07ec54936353ba3d0fb3c6538dab67662225f80a36001600255005b6007915f52600560205260405f20905461069a60038301918254614023565b905501805460ff8160101c1661064e5762ff0000191662010000179055818061064e565b6106cf6005840154600a5490614023565b4210156106105763d0404f8560e01b5f5260045ffd5b63518d568f60e11b5f5260045ffd5b50335f52601460205260ff60405f20541615610607565b506013546001600160a01b0316331415610601565b505f546001600160a01b03163314156105fb565b630d70a0e360e41b5f5260045ffd5b5060ff8260181c166105ed565b630d3d891d60e21b5f5260045ffd5b346103d5575f3660031901126103d5576020601e54604051908152f35b346103d5575f3660031901126103d5576001546040516001600160a01b039091168152602090f35b346103d55760203660031901126103d5576004355f818152601a6020526040902060028101549091906001600160a01b0316156107505760ff600a830154166002811015610836576108275760209160096108016108109361417b565b910154801561081857906147aa565b604051908152f35b506108216144ca565b906147aa565b636272867f60e11b5f5260045ffd5b634e487b7160e01b5f52602160045260245ffd5b346103d55760403660031901126103d557610863613eb2565b7fc8821a874072ba4bd135632bdcea405b70de8b2a0693a9bf625bd1643c36d305602061088e613f26565b92610897614532565b6001600160a01b03165f8181526014835260409020805460ff191660ff86151516179055926103ca565b346103d55760203660031901126103d5576004355f526011602052602060405f2054604051908152f35b346103d55760203660031901126103d557600435610907614532565b6201518081029080820462015180149015171561092357601e55005b634e487b7160e01b5f52601160045260245ffd5b346103d5575f3660031901126103d5576020600854604051908152f35b60203660031901126103d55760043561096b614322565b610973614340565b5f818152601a6020526040902060028101546001600160a01b03169190821561104e57600a810180549360ff8560081c161561101e5760ff8560201c161580611010575b80611002575b15610fd1576109d36005840154600a5490614023565b4211610fa257600e5460ff8160181c165f14610f125750506013546001600160a01b031633148015610efc575b15610ebf575b6001820154805f52600360205260405f20604051610a2381613fb4565b606082549260ff60018060a01b03851694858552818160a01c16602086015260a81c16151560408401526001808060a01b039101541691015215610e8357610a6a9061435e565b6007830154908180821115610e7357610a8291614003565b905b612710820291808304612710149015171561092357610aa291613f96565b600883015410610e2e57610ab58361417b565b905f60ff612710610ace61ffff600c8801541686614010565b049616600281101561083657610cc7575060098301548015610cb457610af59080936147aa565b91823410610c7c575f9580151580610c68575b610c45575b505081610b5791610b2187600b9695614003565b8585015580546201000064ffff010000600160c81b031990911665010000000000600160c81b033360281b161717905534614003565b9380610be3575b505b0154906040519182527f7fb472248c81d2d2657ad1d37a15db0919a52022b105945bcded16294836943b60203393a380610b9c575b6001600255005b5f80808084335af1610bac61413c565b50610b95576040519081527f282bbd50854944524575b1824997f977a3cb2a4006730f370ac62d1d78ec053260203392a280610b95565b5f8080808460018060a01b03601354165af1610bfd61413c565b5015610b5e57837f43f6d24bb23847c72e9d7d412f0cd9f17bd66a7f63665586b6df5245d80b2941604060018060a01b03601354169381519081525f6020820152a384610b5e565b610c50929650614651565b93818511610c60575b8580610b0d565b5f9450610c59565b506013546001600160a01b03161515610b08565b60405162461bcd60e51b815260206004820152601060248201526f0d2dce6eaccccd2c6d2cadce840cae8d60831b6044820152606490fd5b50610af5610cc06144ca565b80936147aa565b94600b939291610d017f000000000000000000000000000000000000000000000000000000000000000093610cfb85613ff2565b90614781565b915f9381151580610e1a575b610ded575b5050610d1e8383614003565b84860155805465010000000000600160c81b0319163360281b65010000000000600160c81b03161781556201000062ff000019825416179055610d847f000000000000000000000000000000000000000000000000000000000000000091303384614587565b81610d91575b5050610b60565b601354610da99183916001600160a01b031690614545565b837f43f6d24bb23847c72e9d7d412f0cd9f17bd66a7f63665586b6df5245d80b2941604060018060a01b036013541693815190815260016020820152a38480610d8a565b610e02929450610dfc90613ff2565b906145cb565b91818311610e12575b8780610d12565b5f9250610e0b565b506013546001600160a01b03161515610d0d565b60405162461bcd60e51b815260206004820152601960248201527f707269636520766f6c6174696c697479206578636565646564000000000000006044820152606490fd5b90610e7d91614003565b90610a84565b60405162461bcd60e51b81526020600482015260146024820152731d1bdad95b881b9bdd081c9959da5cdd195c995960621b6044820152606490fd5b60405162461bcd60e51b815260206004820152601560248201527466756c66696c6c20617070726f766572206f6e6c7960581b6044820152606490fd5b50335f52601460205260ff60405f205416610a00565b60101c60ff16610f23575b50610a06565b33148015610f8e575b8015610f78575b15610f3e5784610f1d565b60405162461bcd60e51b8152602060048201526012602482015271199d5b199a5b1b081c995cdd1c9a58dd195960721b6044820152606490fd5b50335f52601460205260ff60405f205416610f33565b506013546001600160a01b03163314610f2c565b60405162461bcd60e51b8152602060048201526007602482015266195e1c1a5c995960ca1b6044820152606490fd5b60405162461bcd60e51b815260206004820152600960248201526862616420737461746560b81b6044820152606490fd5b5060ff8560181c16156109bd565b5060ff8560101c16156109b7565b60405162461bcd60e51b81526020600482015260086024820152673737ba1030b8383960c11b6044820152606490fd5b60405162461bcd60e51b815260206004820152600860248201526737379037b33332b960c11b6044820152606490fd5b346103d55760203660031901126103d5577fd3f4cf26f9820e60d3c87594b7988281ea42db6a558d0670f6d98fd241c5cfbf60206110ba613f17565b6110c2614532565b151560ff19601d541660ff821617601d55604051908152a1005b346103d55760203660031901126103d5576004355f526010602052602060405f2054604051908152f35b346103d55760203660031901126103d5576004356001600160a01b038116908190036103d557611134614532565b60405163313ce56760e01b8152602081600481855afa9081156111dc5760089160ff915f916111ad575b50160361119e57600780546001600160a01b031916821790555f7f34a557dba1637cb357638b5ca960120a9bfa14b86aaa9efaef74bce5267733998180a3005b639d696d3960e01b5f5260045ffd5b6111cf915060203d6020116111d5575b6111c78183613fd0565b810190614309565b8461115e565b503d6111bd565b6040513d5f823e3d90fd5b346103d55760203660031901126103d5576001600160a01b03611208613eb2565b165f526015602052602060ff60405f2054166040519015158152f35b346103d55760203660031901126103d55761123d613eb2565b611245614532565b6001600160a01b0316801561129657601354816001600160a01b0382167fee7760cb405d3beb1072ae2e716857daa45a5dd52bc1383a21173199d32c7dee5f80a36001600160a01b03191617601355005b6392077bad60e01b5f5260045ffd5b346103d55760203660031901126103d5576004355f52600f602052602060405f2054604051908152f35b346103d55760203660031901126103d55760043560018060a01b036013541633141580611529575b61151a57611303614340565b5f818152601a6020526040902060028101546001600160a01b03161561075057600a810190815460ff8160201c16801561150d575b6114fe5760081c60ff166114ef5780545f52600560205260ff600460405f20015416156114e0575f83815260176020908152604080832033845290915290205460ff166114d1576001810154805f52600360205260405f2060405161139c81613fb4565b606082549260ff60018060a01b03851694858552818160a01c16602086015260a81c16151560408401526001808060a01b0391015416910152156114c2576113e39061435e565b60078201549081808211156114b3576113fb91614003565b61271081029080820461271014901517156109235760089161141c91613f96565b910154106114a4575f8281526017602090815260408083203384528252808320805460ff1916600190811790915585845260189092529091208054909101908190556016541115611491575b5033907f4a2698bb88989004e5a2f73686d0fe7c6c15b59414ffe31b59e2e3e7c15712ee5f80a3005b805461ff00191661010017905581611468565b636123774160e11b5f5260045ffd5b906114bd91614003565b6113fb565b63259ba1ad60e01b5f5260045ffd5b63037fb9e360e51b5f5260045ffd5b63d110890d60e01b5f5260045ffd5b63080fc0bd60e11b5f5260045ffd5b634291db1560e11b5f5260045ffd5b5060ff8160101c16611338565b630197e13360e61b5f5260045ffd5b50335f52601460205260ff60405f205416156112f7565b346103d55761154e36613f35565b9060018060a01b036013541633141580611672575b61151a5761156f614322565b60328211611663575f915f5b8181106115f0578380156115e1575f80808084335af161159961413c565b50156115d2576040519081527f189a25b5a66c9052ffc86e78804792513df972ae1c9d28b04d3b6933a5c3835560203392a26001600255005b6327fcd9d160e01b5f5260045ffd5b63fa457a4b60e01b5f5260045ffd5b6115fb81838561423c565b35805f52600560205260ff600760405f20015460101c16158061164e575b611627575b5060010161157b565b5f9081526011602052604081208054919055909360019161164791614023565b939061161e565b50805f52601160205260405f20541515611619565b6305beb17160e11b5f5260045ffd5b50335f52601460205260ff60405f20541615611563565b346103d5575f3660031901126103d557602061ffff600e5416604051908152f35b346103d55760603660031901126103d5576004356116c6613ec8565b6044356001600160a01b0381169291908390036103d5575f546001600160a01b0316331415806118b8575b6118a9575f828152600360205260409020546001600160a01b031661189a576001600160a01b03169081156105835760405163313ce56760e01b8152602081600481865afa80156111dc5760ff915f9161187b575b50166012811161186c5760016040519161175f83613fb4565b84835260208084019182526040808501848152606086018981525f888152600390945291909220945185549351925160ff60a81b90151560a81b1660ff60a01b60a094851b166001600160b01b03199095169386901b86900391821661ffff60a01b1916939093179390931791909117845551929091018054929091166001600160a01b03166001600160a01b0319909216919091179055600454600160401b8110156118585761183061181a826001859401600455613e74565b819391549060031b91821b915f19901b19161790565b90557fc6a8e30320e4c33a9a9edb5b316feb50477601b5a0fa02a493aa030cc9ca684e5f80a4005b634e487b7160e01b5f52604160045260245ffd5b630692acc560e51b5f5260045ffd5b611894915060203d6020116111d5576111c78183613fd0565b85611746565b632ae3f45d60e11b5f5260045ffd5b63ea8e4eb560e01b5f5260045ffd5b50335f52601560205260ff60405f205416156116f1565b346103d55760803660031901126103d5576044356024356004356064356118f4614532565b600d54811161194a577fe3eb5d4eccdae2d96efa105f65c8db865f9fc72984f2b879a27448fed50d181593608093836008558060095581600a5582600b55604051938452602084015260408301526060820152a1005b63e42b281d60e01b5f5260045ffd5b346103d55760203660031901126103d5576004356004548110156103d557611982602091613e74565b90549060031b1c604051908152f35b346103d55760203660031901126103d5576004356119ad614532565b6119b5614322565b5f818152601a6020526040902060028101546001600160a01b03169190821561075057600a810180549160ff8360101c16158015611b02575b8015611af5575b6114fe57600681015462ed4e008101809111610923574210611ae6577f880f2ef2613b092f1a0a819f294155c98667eb294b7e6bf7a3810278142c1a1c926020926301000000600160038501549401549263ff0000001916179055805f526010835260405f20611a66838254614003565b9055805f52600f835260405f20611a7e838254614003565b90555f5260038252611ad8818660405f20604051611a9b81613fb4565b606082549260ff60018060a01b03851694858552818160a01c168b86015260a81c16151560408401526001808060a01b0391015416910152614545565b604051908152a36001600255005b633665db3d60e21b5f5260045ffd5b5060ff8360201c166119f5565b5060ff8360181c166119ee565b346103d5575f3660031901126103d5576020601654604051908152f35b346103d55760403660031901126103d5576020611b4d60243560043561424c565b61ffff60405191168152f35b346103d55760203660031901126103d5576004355f526003602052608060405f208054906001808060a01b039101541660ff6040519260018060a01b0381168452818160a01c16602085015260a81c16151560408301526060820152f35b346103d5575f3660031901126103d557602060ff601d54166040519015158152f35b346103d5575f3660031901126103d5575f546040516001600160a01b039091168152602090f35b346103d5575f3660031901126103d557602060ff600e5460181c166040519015158152f35b346103d55760203660031901126103d5576004355f52601a60205261024060405f2080549060018101549060018060a01b036002820154166003820154600483015460058401546006850154600786015491600887015493600988015495600a8901549761ffff600c600b8c01549b0154169a6040519c8d5260208d015260408c015260608b015260808a015260a089015260c088015260e0870152610100860152610120850152611cde610140850160ff8316613f89565b60ff8160081c16151561016085015260ff8160101c16151561018085015260ff8160181c1615156101a085015260ff8160201c1615156101c085015260018060a01b039060281c166101e0840152610200830152610220820152f35b346103d557611d4836613f35565b6013546001600160a01b031633141580611f32575b61151a57611d69614322565b611d71614340565b60328111611663576019545f5b828110611d8c576001600255005b80611d9a600192858761423c565b3580158015611f28575b611f2057805f52601a60205260405f2090838060a01b036002830154169182158015611f0e575b8015611efd575b8015611eec575b611ee25760068101544210611ee2578481015490815f52600360205260405f209160405192611e0784613fb4565b80549060ff898060a01b03831692838752818160a01c16602088015260a81c161515604086015288808060a01b0391015416606085015215611ed657611ec682867f880f2ef2613b092f1a0a819f294155c98667eb294b7e6bf7a3810278142c1a1c95600a946003602097015495869401630100000063ff00000019825416179055805f526010875260405f20611e9f858254614003565b90555f52600f865260405f20611eb6848254614003565b90558a8060a01b03905116614545565b604051908152a301915b91611d7e565b50505050500191611ed0565b5050500191611ed0565b5060ff600a82015460181c16611dd9565b5060ff600a82015460201c16611dd2565b5060ff600a82015460101c1615611dcb565b500191611ed0565b5083811015611da4565b50335f52601460205260ff60405f20541615611d5d565b346103d5575f3660031901126103d557611f61614532565b611f69614340565b6001805460ff60a01b1916600160a01b1790556040513381527f62e78cea01bee320cd4e420270b5ea74000d11b0c9f74754ebdbfc544b05a25890602090a1005b346103d5575f3660031901126103d5576007546040516001600160a01b039091168152602090f35b346103d55760203660031901126103d5577ff863082dfb2e420e73e3835cf6a5ca9975a68401d1b1e1819aa8edb08005109a602061200e613f17565b612016614532565b1515600e5462ff00008260101b169062ff0000191617600e55604051908152a1005b346103d5575f3660031901126103d557602060405160ff7f0000000000000000000000000000000000000000000000000000000000000000168152f35b346103d5575f3660031901126103d557600154336001600160a01b03909116036120e757600180546001600160a01b03199081169091555f805433928116831782556001600160a01b0316907f8be0079c531659141344cd1fd0a4f28419497f9722a3daafe3b4186f6b6457e09080a3005b63118cdaa760e01b5f523360045260245ffd5b346103d55760203660031901126103d5576004355f52600560205261020060405f2080549060ff60018060a01b03600183015416916002810154600382015463ffffffff600484015460058501549260068601549460086007880154970154986040519a8b5260208b015260408a015260608901528581161515608089015261ffff8160081c1660a0890152818160181c1660c089015261ffff8160381c1660e089015261ffff8160481c16610100890152818160581c1661012089015260781c1661014087015261016086015261018085015261ffff81166101a085015260101c1615156101c08301526101e0820152f35b346103d5575f3660031901126103d557612205614532565b600180546001600160a01b03199081169091555f80549182168155906001600160a01b03167f8be0079c531659141344cd1fd0a4f28419497f9722a3daafe3b4186f6b6457e08280a3005b346103d55760203660031901126103d55760043561226c614322565b60ff601d54161561250c575f818152601a6020526040902060028101546001600160a01b03169190821561075057600a81019081549060ff8260101c161580156124ff575b80156124f2575b6124e357602882901c6001600160a01b0316943386141590816124d8575b50806124c4575b806124af575b80612498575b612489576122fe6005820154601e5490614023565b42108061246f575b612460578054906001810154600b60038301549201549464010000000060ff86169564ff0000000019161790555f52601060205260405f20612349828254614003565b90558161241e575b5050600281101561083657806123c6575f80808085885af161237161413c565b50156123b7577fbaaee93bed811019da888f1cb314bc4d6a1f81639c738931b3e400e3d3568b7c916123af6040925b83519283526020830190613f89565ba36001600255005b631453fe1760e21b5f5260045ffd5b816123af6040926124197fbaaee93bed811019da888f1cb314bc4d6a1f81639c738931b3e400e3d3568b7c95887f0000000000000000000000000000000000000000000000000000000000000000614545565b6123a0565b6007915f52600560205260405f209061243c60038301918254614023565b905501805460ff8160101c166123515762ff00001916620100001790558480612351565b633a1c40d960e01b5f5260045ffd5b50600681015462278d008101809111610923574210612306565b63a170d34160e01b5f5260045ffd5b50335f52601460205260ff60405f205416156122e9565b506013546001600160a01b03163314156122e3565b505f546001600160a01b03163314156122dd565b9050331415866122d6565b632ad2211d60e01b5f5260045ffd5b5060ff8260201c166122b8565b5060ff8260181c166122b1565b635ef38d1160e11b5f5260045ffd5b346103d55760203660031901126103d5576001600160a01b0361253c613eb2565b165f526014602052602060ff60405f2054166040519015158152f35b346103d55760203660031901126103d557600435612574614322565b5f81815260056020526040902060018101546001600160a01b0316330361276b576007810180549060ff8260101c161561275c576003830190815493841561274d575492855f52601160205260405f205493805f52600360205260405f2091604051926125e084613fb4565b80549060ff60018060a01b03831692838752818160a01c16602088015260a81c16151560408601526001808060a01b039101541660608501521561273e57815f52600f6020528660405f20541061272f576126799487945f9262ff000019169055555f52600f60205260405f20612658838254614003565b90555f868152601160205260408120555133906001600160a01b0316614545565b806126b2575b5060207f3dd02a954fe828adfd7751fff7ad2d1808ab46d491c857dfcc6230de19e391a591604051908152a26001600255005b5f80808084335af16126c261413c565b5015612720577f3dd02a954fe828adfd7751fff7ad2d1808ab46d491c857dfcc6230de19e391a591602091604051908152847fc841337ce53a0f69ac0a42e2ecc859f367843075940f41fdfd63a65dbff9fc19843393a3915061267f565b63e2e9a73160e01b5f5260045ffd5b631925414d60e11b5f5260045ffd5b63c1ab6dc160e01b5f5260045ffd5b630686827b60e51b5f5260045ffd5b634065aaf160e11b5f5260045ffd5b63685f675f60e01b5f5260045ffd5b346103d5575f3660031901126103d5576020601954604051908152f35b346103d5575f3660031901126103d5576020600954604051908152f35b346103d5575f3660031901126103d557602060ff60015460a01c166040519015158152f35b346103d5575f3660031901126103d5576020601254604051908152f35b346103d55760403660031901126103d55761280f613ec8565b6004355f52601760205260405f209060018060a01b03165f52602052602060ff60405f2054166040519015158152f35b346103d55760203660031901126103d557612858614532565b600435600d55005b346103d5575f3660031901126103d5576020600a54604051908152f35b346103d55760203660031901126103d557602061081060043561417b565b346103d55760203660031901126103d5576004356128b7614532565b67016345785d8a000081116128f7576020817f3f02cac10813953e05e86f59dedf68f86fade7712279751ea10e50fe57f83ad192601255604051908152a1005b637022fdc960e01b5f5260045ffd5b346103d5575f3660031901126103d557602060405160648152f35b6101803660031901126103d5576004356024356044358015158091036103d5576064359161ffff83168093036103d5576084359063ffffffff82168092036103d55761296b613ea1565b9360c4359261ffff84168094036103d55760e4359163ffffffff83168093036103d557610104359363ffffffff85168095036103d55761012435926101443593610164359961ffff8b16809b036103d5576129c4614322565b6129cc614340565b8b5f52600360205260405f2090604051916129e683613fb4565b80546001600160a01b03808216855260ff60a083901c8116602087015260a89290921c9091161580156040860152600190920154166060840152612e65578415612e5657868311612e475761ffff1693898511612e3857888811612e29576012543410612e1a5781516040516370a0823160e01b81523060048201529190602090839060249082906001600160a01b03165afa9182156111dc575f92612de5575b50602492612aa460209260018060a01b0383511630903390614587565b516040516370a0823160e01b815230600482015293849182906001600160a01b03165afa80156111dc575f90612db1575b612adf9250614003565b988915612da2578b5f52600f60205260405f20612afd8b8254614023565b90556006549a60018c016006556040519661020088019388851067ffffffffffffffff8611176118585760089a8f9a6101e09b8f976040528b5260208b019d8e33905260408c019688885260608d0198895260808d015260a08c019a8b5260c08c0198895260e08c01998a526101008c01526101208b01526101408a01526101608901526101808801526101a087015260016101c087015242878701528a5f52600560205260405f209886518a5560018060a01b0390511660018a019060018060a01b03166001600160601b0360a01b8254161790555160028901555160038801556004870192612c0060808601511515859060ff801983541691151516179055565b5168ffff0000000000000066ffffffff0000008554935160181b16935160381b169061ffff60481b61010087015160481b169163ffffffff60581b61012088015160581b169363ffffffff60781b61014089015160781b169563ffffffff60781b199363ffffffff60581b199262ffff0061ffff60481b19928e1b169068ffffffffffffffff001916171617161716171717905561016081015160058501556101808101516006850155612ce86007850161ffff806101a0850151161661ffff198254161781556101c0830151151562ff0000825491151560101b169062ff00001916179055565b0151910155601254825f5260116020528060405f2055827f7d2fe73377c27fea70551d047fa2b5d20fde8d4f5f4de7607cfa68e791edc0386020604051848152a2803411612d6e575b50602092604051918252827f36ffd597f786348fd508cae0644719351def3fea42053a8ad3a9d22716896bea853394a46001600255604051908152f35b5f8080612d7c819434614003565b335af1612d8761413c565b5015612d935783612d31565b633c31275160e21b5f5260045ffd5b6323725bab60e21b5f5260045ffd5b506020823d602011612ddd575b81612dcb60209383613fd0565b810103126103d557612adf9151612ad5565b3d9150612dbe565b9091506020813d602011612e12575b81612e0160209383613fd0565b810103126103d55751906024612a87565b3d9150612df4565b634d61c52d60e01b5f5260045ffd5b630670b8c960e21b5f5260045ffd5b63c706fbf960e01b5f5260045ffd5b6309472f0f60e21b5f5260045ffd5b631f2a200560e01b5f5260045ffd5b635a7cb4e960e01b5f5260045ffd5b346103d55760203660031901126103d5576004355f526018602052602060405f2054604051908152f35b346103d5575f3660031901126103d5576020600654604051908152f35b346103d5575f3660031901126103d557612ed3614532565b60015460ff8160a01c1615612f1a5760ff60a01b19166001556040513381527f5db9ee0a495bf2e6ff9c91a7834c1ba4fdd244a5e8aa4e537bd38aeae4b073aa90602090a1005b638dfc202b60e01b5f5260045ffd5b346103d5575f3660031901126103d5576040517f00000000000000000000000000000000000000000000000000000000000000006001600160a01b03168152602090f35b346103d55760203660031901126103d5577f6b51c7df853e7ef8a7b6bda387bb4a86285f93acf5f0819f0e94de7e4e9227c86020600435612fac614532565b80600c55604051908152a1005b346103d5575f3660031901126103d557602060ff600e5460101c166040519015158152f35b346103d55760203660031901126103d557600435612ffa614322565b613002614340565b5f818152601a6020526040902060028101546001600160a01b03169190821561075057600a810180549060ff8260101c16158015613161575b8015613154575b6114fe576006830154421061314557843303613136576301000000600160038501549401549263ff0000001916179055805f52601060205260405f20613089838254614003565b9055805f52600f60205260405f206130a2838254614003565b90555f52600360205260405f20604051906130bc82613fb4565b80549060ff60018060a01b03831692838552818160a01c16602086015260a81c16151560408401526001808060a01b03910154166060830152156114c257517f880f2ef2613b092f1a0a819f294155c98667eb294b7e6bf7a3810278142c1a1c91602091611ad890829087906001600160a01b0316614545565b63644d871f60e01b5f5260045ffd5b6303cb96db60e21b5f5260045ffd5b5060ff8260181c16613042565b5060ff8260201c1661303b565b346103d5575f3660031901126103d557601b54606481111561333957606319810181811161092357905b5f600a54835b8381108061332f575b15613225576131b581613e5c565b90549060031b1c5f52601a60205260405f2082600a8201549160ff8360201c16159283613216575b50826131fe575b50506131f3575b60010161319e565b6001909201916131eb565b61320c925060050154614023565b42111582876131e4565b60101c60ff16159250886131dd565b5061322f82614124565b9161323d6040519384613fd0565b808352601f1961324c82614124565b013660208501375f945b84811080613326575b156133145761326d81613e5c565b90549060031b1c5f52601a60205260405f2083600a8201549160ff8360201c16159283613305575b50826132ed575b50506132ab575b600101613256565b946132b586613e5c565b90549060031b1c84518210156132d957600582901b850160200152600101946132a3565b634e487b7160e01b5f52603260045260245ffd5b6132fb925060050154614023565b421115838861329c565b60101c60ff1615925089613295565b604051806133228682613ede565b0390f35b5081861061325f565b50606483106131a7565b5f90613198565b346103d55760203660031901126103d55760043561335c614532565b8015801561337d575b61336e57601655005b631601b89360e01b5f5260045ffd5b50600a8111613365565b346103d55760203660031901126103d55760043561ffff81168091036103d5576133af614532565b6101f481116133c85761ffff19600e541617600e555f80f35b634a642d0f60e11b5f5260045ffd5b346103d55760203660031901126103d5576004356133f3614340565b801580156136cf575b6136c157601b54600a545f92835b838110806136b8575b1561353e5761342181613e5c565b90549060031b1c5f52601a60205260405f2060018060a01b0360028201541615158061352c575b8061351a575b806134f7575b613462575b5060010161340a565b6001919581600a84930164010000000064ff000000001982541617905560038101908154848201545f5260106020526134a060405f20918254614003565b90555490816134b4575b5050019490613459565b6007915f52600560205260405f2090546134d360038301918254614023565b905501805460ff8160101c166134aa5762ff000019166201000017905587806134aa565b50613506846005830154614023565b620151808101809111610923574211613454565b5060ff600a82015460201c161561344e565b5060ff600a82015460101c1615613448565b8461354557005b601b54600a545f919082805b838510806136ae575b1561362a5761356885613e5c565b90549060031b1c805f52601a60205260405f208460018060a01b0360028301541615159182613617575b82613604575b826135df575b5050156135d15760019182918782036135bd575b5001945b0193613551565b6135c961181a83613e5c565b9055876135b2565b5093906001809101916135b6565b6135ed925060050154614023565b62015180810180911161092357421115848861359e565b600a81015460101c60ff16159250613598565b600a81015460201c60ff16159250613592565b93509150505b601b5482811115613677578015613663575f190161364d81613e5c565b8154905f199060031b1b19169055601b55613630565b634e487b7160e01b5f52603160045260245ffd5b5090508061368157005b60207f9ddcd36b168776e324d99e26df4ddc8da838a0521965aab1cc126e62153455bb91604051908152a1005b506064821061355a565b50818510613413565b6268b27160e01b5f5260045ffd5b50606481116133fc565b346103d5575f3660031901126103d5576020600d54604051908152f35b346103d55760203660031901126103d5576020610810600435614030565b346103d55760203660031901126103d5577f32aaf86ee178a234a949738196b431665f8042b755c7922bc2c40e6e51fbe9046020613750613f17565b613758614532565b1515600e5463ff0000008260181b169063ff000000191617600e55604051908152a1005b346103d55760203660031901126103d5576001600160a01b0361379d613eb2565b165f52601c60205260405f206040519081602082549182815201915f5260205f20905f5b8181106137e457613322856137d881870382613fd0565b60405191829182613ede565b82548452602090930192600192830192016137c1565b346103d55760203660031901126103d5576004355f818152601a6020526040902060028101546001600160a01b03161561075057600a015460ff1660028110156108365760010361387c5761081061385360209261417b565b610cfb7f0000000000000000000000000000000000000000000000000000000000000000613ff2565b63925c245d60e01b5f5260045ffd5b346103d55760c03660031901126103d557604435602435600435600260643510156103d557608435916138bc613ea1565b926138c5614322565b6138cd614340565b825f52600560205260405f2092600784019160ff835460101c1615613e2857600585015484108015613e1b575b613e0c5760038501928354808611613dfd576004870197885460ff81165f14613dae5761ffff8160381c168b108015613d9e575b613d8f5762015180850463ffffffff8260581c168110918215613d7c575b5050613d6d5761ffff811660198110908115613d62575b506133c857945b8754805f52600360205260405f209260405161398581613fb4565b606085549560018060a01b038716835260ff6020840197818160a01c16895260a81c16151560408401526001808060a01b03910154169101526139de6139d760ff6139cf8561435e565b965116613ff2565b858b6146fc565b8c6127100390612710821161092357612710916139fa91614010565b0460085411613d535788613a0d91614003565b82555f52601060205260405f20613a25888254614023565b90555415613d44575b61ffff613a4d60ff6019549a60018c0160195554161598549442614023565b92541691606435613d3d57613a606144ca565b935b60405195610240870187811067ffffffffffffffff82111761185857604052865260208601523360408601528660608601528960808601524260a086015260c085015260e0840152610100830152610120820152606435610140820152836101608201525f6101808201525f6101a08201525f6101c08201525f6101e08201525f61020082015261ffff8216610220820152845f52601a60205260405f2090805182556020810151600183015560018060a01b03604082015116600283019060018060a01b03166001600160601b0360a01b825416179055606081015160038301556080810151600483015560a0810151600583015560c0810151600683015560e0810151600783015561010081015160088301556101208101516009830155600a820190610140810151600281101561083657825461016083015161018084015162ffffff1990921660ff9093169290921791151560081b61ff00169190911790151560101b62ff00001617825561ffff91600c9183916102209190613c40906101a083015181546101c08501516101e08601516301000000600160c81b031990921692151560181b63ff000000169290921791151560201b64ff00000000169190911760289190911b65010000000000600160c81b0316179055565b610200810151600b8701550151169201911661ffff19825416179055335f52601c60205260405f208054600160401b8110156118585761181a8187936001613c8a94018155613e8c565b9055601b5490600160401b8210156118585760209585613cb861181a85600161ffff9701601b55601b613e8c565b905560405193845286840152613cd360408401606435613f89565b166060820152827fe48ede32c59d99d4d5f975d4f43361bb8c68d5b89906a2d9887a901a10951f6c60803393a3613d12575b6001600255604051908152f35b33817f4a2698bb88989004e5a2f73686d0fe7c6c15b59414ffe31b59e2e3e7c15712ee5f80a3613d05565b5f93613a62565b815462ff000019168255613a2e565b633417bfe760e21b5f5260045ffd5b60969150118b613963565b6370448e5160e11b5f5260045ffd5b60781c63ffffffff161090508b8061394c565b63eb2b61a560e01b5f5260045ffd5b5061ffff8160481c168b1161392e565b905061ffff8160081c168a03613dee5760181c63ffffffff1662015180840403613ddf5761ffff600e54169461396a565b6312d4280760e01b5f5260045ffd5b63cb69387160e01b5f5260045ffd5b6304fce4c160e21b5f5260045ffd5b63c64200e960e01b5f5260045ffd5b50600685015484116138fa565b63153b741360e11b5f5260045ffd5b346103d55760203660031901126103d557600435601b548110156103d5576119826020915b601b548110156132d957601b5f5260205f2001905f90565b6004548110156132d95760045f5260205f2001905f90565b80548210156132d9575f5260205f2001905f90565b60a4359061ffff821682036103d557565b600435906001600160a01b03821682036103d557565b602435906001600160a01b03821682036103d557565b60206040818301928281528451809452019201905f5b818110613f015750505090565b8251845260209384019390920191600101613ef4565b6004359081151582036103d557565b6024359081151582036103d557565b9060206003198301126103d55760043567ffffffffffffffff81116103d557826023820112156103d55780600401359267ffffffffffffffff84116103d55760248460051b830101116103d5576024019190565b9060028210156108365752565b8115613fa0570490565b634e487b7160e01b5f52601260045260245ffd5b6080810190811067ffffffffffffffff82111761185857604052565b90601f8019910116810190811067ffffffffffffffff82111761185857604052565b60ff16604d811161092357600a0a90565b9190820391821161092357565b8181029291811591840414171561092357565b9190820180921161092357565b805f52600360205260405f206040519061404982613fb4565b80549060ff60018060a01b03831692838552818160a01c16602086015260a81c16151560408401526001808060a01b03910154166060830152156114c257516040516370a0823160e01b815230600482015290602090829060249082906001600160a01b03165afa9081156111dc575f916140f2575b50815f52601060205260405f205481106140ec576140e9915f52601060205260405f205490614003565b90565b50505f90565b90506020813d60201161411c575b8161410d60209383613fd0565b810103126103d557515f6140bf565b3d9150614100565b67ffffffffffffffff81116118585760051b60200190565b3d15614176573d9067ffffffffffffffff8211611858576040519161416b601f8201601f191660200184613fd0565b82523d5f602084013e565b606090565b5f908152601a6020526040902060028101546001600160a01b0316156107505760018101545f52600360205260405f20604051906141b882613fb4565b805491606060018060a01b0384169283835260ff6020840195818160a01c16875260a81c16151560408401526001808060a01b0391015416910152156114c25761421a61420a60ff6004935116613ff2565b60038401546007850154906146fc565b91015461271003906127108211610923576127109161423891614010565b0490565b91908110156132d95760051b0190565b6101f481116142b3575060645b61016d82106142925761426f9150603290614023565b6019811061428c57609681116142865761ffff1690565b50609690565b50601990565b6032820291808304603214901517156109235761016d61426f920490614023565b610bb881106142c457506019614259565b6101f319810190811161092357604b810290808204604b1490151715610923576109c49004606403606481111561425957634e487b7160e01b5f52601160045260245ffd5b908160209103126103d5575160ff811681036103d55790565b60028054146143315760028055565b633ee5aeb560e01b5f5260045ffd5b60ff60015460a01c1661434f57565b63d93c066560e01b5f5260045ffd5b5f526003602052600460a0606060405f206040519061437c82613fb4565b60ff8154600180871b03811684528181871c16602085015260a81c161515604083015260018080861b0391015416918291015260405192838092633fabe5a360e21b82525afa9081156111dc575f915f925f925f92614448575b505f8413156144395769ffffffffffffffffffff80911691161061442a578015908115614415575b506144065790565b630cd5fa0760e11b5f5260045ffd5b614420915042614003565b600c54105f6143fe565b6304d2887160e01b5f5260045ffd5b63fd1ee34960e01b5f5260045ffd5b9250505061446e915060a03d60a01161447a575b6144668183613fd0565b810190614498565b9293909291505f6143d6565b503d61445c565b519069ffffffffffffffffffff821682036103d557565b908160a09103126103d5576144ac81614481565b916020820151916040810151916140e9608060608401519301614481565b600754604051633fabe5a360e21b81529060a090829060049082906001600160a01b03165afa9081156111dc575f915f925f925f9261444857505f8413156144395769ffffffffffffffffffff80911691161061442a57801590811561441557506144065790565b5f546001600160a01b031633036120e757565b60405163a9059cbb60e01b60208201526001600160a01b03909216602483015260448083019390935291815261458591614580606483613fd0565b6147d7565b565b6040516323b872dd60e01b60208201526001600160a01b03928316602482015292909116604483015260648083019390935291815261458591614580608483613fd0565b9190915f838202915f198582099183808410930392808403931461464257826305f5e100111561463357507facbe0e98f503f8881186e60dbb7f727bf36b7213ee9f5a78c767074b22e90e2193946305f5e100910990828211900360f81b910360081c170290565b63227bc15360e01b8152600490fd5b5050506305f5e1009192500490565b90670de0b6b3a76400008202905f19670de0b6b3a76400008409928280851094039380850394146146f057838211156146e157670de0b6b3a7640000829109815f0382168092046002816003021880820260020302808202600203028082026002030280820260020302808202600203028091026002030293600183805f03040190848311900302920304170290565b63227bc15360e01b5f5260045ffd5b50906140e99250613f96565b9091828202915f198482099383808610950394808603951461477457848311156146e157829109815f0382168092046002816003021880820260020302808202600203028082026002030280820260020302808202600203028091026002030293600183805f03040190848311900302920304170290565b5050906140e99250613f96565b906305f5e100906147938282856146fc565b920961479c5790565b600181018091116109235790565b906147be81670de0b6b3a7640000846146fc565b918115613fa057670de0b6b3a7640000900961479c5790565b5f806147ff9260018060a01b03169360208151910182865af16147f861413c565b908361484b565b8051908115159182614827575b50506148155750565b635274afe760e01b5f5260045260245ffd5b81925090602091810103126103d557602001518015908115036103d5575f8061480c565b9061486f575080511561486057805190602001fd5b630a12f52160e11b5f5260045ffd5b815115806148a0575b614880575090565b639996b31560e01b5f9081526001600160a01b0391909116600452602490fd5b50803b1561487856fea264697066735822122048ce9194d11e365bafc374a346ca7fdd08201c2c0f59ca178fb9a19265b02aa964736f6c634300081a0033",
    "linkReferences": {}
  },
  "methodIdentifiers": {
    "MAX_OPEN_OFFERS_TO_RETURN()": "4175a56e",
    "acceptOwnership()": "79ba5097",
    "adminEmergencyWithdraw(uint256)": "9a3992d1",
    "agent()": "f5ff5c76",
    "approvalCount(uint256)": "40ad01ea",
    "approveOffer(uint256)": "a5d7c10a",
    "authorizedRegistrar(address)": "bf3422f2",
    "autoClaim(uint256[])": "88b3729e",
    "availableTokenInventoryForToken(bytes32)": "147cd36c",
    "calculateAgentCommission(uint256,uint256)": "97a2fbd4",
    "cancelOffer(uint256)": "ef706adf",
    "claim(uint256)": "379607f5",
    "cleanupExpiredOffers(uint256)": "2014b71c",
    "consignmentGasDeposit(uint256)": "d6a4f5e8",
    "consignments(uint256)": "7244fe04",
    "createConsignment(bytes32,uint256,bool,uint16,uint32,uint16,uint16,uint32,uint32,uint256,uint256,uint16)": "40f5e1b8",
    "createOfferFromConsignment(uint256,uint256,uint256,uint8,uint256,uint16)": "0d2d94bd",
    "defaultUnlockDelaySeconds()": "f52a70f2",
    "emergencyRefund(uint256)": "70e5deb9",
    "emergencyRefundDeadline()": "e343d9b4",
    "emergencyRefundsEnabled()": "8f2a8492",
    "ethUsdFeed()": "8009b7bd",
    "fulfillOffer(uint256)": "c78545d9",
    "getOffersForBeneficiary(address)": "11d69ceb",
    "getOpenOfferIds()": "26532163",
    "isApprover(address)": "6d218e48",
    "maxFeedAgeSeconds()": "f1f3d786",
    "maxLockupSeconds()": "1ac6d8ba",
    "maxTokenPerOrder()": "5ef5f029",
    "minUsdAmount()": "ce8e4830",
    "nextConsignmentId()": "40569d2a",
    "nextOfferId()": "5f5d0655",
    "offerApprovals(uint256,address)": "5415b754",
    "offers(uint256)": "8a72ea6a",
    "openOfferIds(uint256)": "062075cc",
    "owner()": "8da5cb5b",
    "p2pCommissionBps()": "a18d2edc",
    "pause()": "8456cb59",
    "paused()": "5c975abb",
    "pendingOwner()": "e30c3978",
    "quoteExpirySeconds()": "48186b0b",
    "registerToken(bytes32,address,address)": "a0ab9067",
    "renounceOwnership()": "715018a6",
    "requireApproverToFulfill()": "8ba84da1",
    "requiredApprovals()": "99c1aadc",
    "requiredEthWei(uint256)": "dadc1aea",
    "requiredGasDepositPerConsignment()": "58e3a77e",
    "requiredUsdcAmount(uint256)": "1003c6f2",
    "restrictFulfillToBeneficiaryOrApprover()": "394cf10e",
    "setAgent(address)": "bcf685ed",
    "setApprover(address,bool)": "d76fd2e7",
    "setAuthorizedRegistrar(address,bool)": "fdfcadeb",
    "setEmergencyRefund(bool)": "c719a536",
    "setEmergencyRefundDeadline(uint256)": "d22dbcf1",
    "setEthFeed(address)": "c298b1ad",
    "setLimits(uint256,uint256,uint256,uint256)": "a075b7c7",
    "setMaxFeedAge(uint256)": "3b2fb8c5",
    "setMaxLockup(uint256)": "4c707d92",
    "setP2PCommission(uint16)": "20af3329",
    "setRequireApproverToFulfill(bool)": "121284dc",
    "setRequiredApprovals(uint256)": "222a242e",
    "setRequiredGasDeposit(uint256)": "41ae69e2",
    "setRestrictFulfill(bool)": "7c941a23",
    "tokenDeposited(bytes32)": "a600afa8",
    "tokenList(uint256)": "9ead7222",
    "tokenReserved(bytes32)": "c55f69d9",
    "tokens(bytes32)": "904194a3",
    "totalUsdForOffer(uint256)": "433fe997",
    "transferOwnership(address)": "f2fde38b",
    "unpause()": "3f4ba83a",
    "usdc()": "3e413bee",
    "usdcDecimals()": "7bf42165",
    "withdrawConsignment(uint256)": "6b2636ab",
    "withdrawGasDeposits(uint256[])": "a1cd5018",
    "withdrawStable(address,uint256,uint256)": "f0ee4a48"
  },
  "id": 1
}